:020000040800F2
:10000000E8060020350200089D330008A1320008F0
:1000100099330008411500088536000800000000EB
:100020000000000000000000000000004D34000847
:1000300045150008000000000D340008A534000834
:100040004F0200084F0200084F0200084F0200084C
:100050004F0200084F0200084F0200084F0200083C
:100060004F0200084F0200084F0200084F0200082C
:100070004F0200084F0200084F0200084F0200081C
:100080004F0200084F0200084F0200084F0200080C
:100090004F0200084F0200084F0200084F020008FC
:1000A0004F0200084F0200084F0200084F020008EC
:1000B0004F0200084F020008000000004F02000835
:1000C0004F02000800000000000000004F0200087E
:1000D000000000004F0200084F020008000000006E
:1000E0004F0200084F0200084F02000800F002F81B
:1000F00000F090F80AA090E8000C82448344AAF132
:100100000107DA4501D100F085F8AFF2090EBAE82F
:100110000F0013F0010F18BFFB1A43F0010318473B
:100120008C450000AC450000103A24BF78C878C167
:10013000FAD8520724BF30C830C144BF04680C60ED
:10014000704700000023002400250026103A28BF35
:1001500078C1FBD8520728BF30C148BF0B60704739
:100160006E2900F08581702900F0C782662904F0AD
:10017000FF81652904F0FC81672904F0F981612978
:1001800004F0F88103681B0A28BF41F08001692947
:1001900000F03281642900F02F81752900F02C8154
:1001A0006F2900F05582782900F09382E92900F048
:1001B000EF81E42900F0EC81F52900F0E981EF29D5
:1001C00000F05282F82900F092820368DB0928BF10
:1001D00041F08001632900F09387732900F098872C
:1001E000E32900F0A387F32900F0A88700207047D7
:1001F0001FB500F0F9FF04000020002103F0FCFE11
:10020000401C60600020002103F0E0FEE0601FBDA4
:1002100010B510BD00F0BAFF1146FFF7E9FF03F07B
:100220007BFA01F097F803B4FFF7F2FF03BC01F08B
:10023000DFF800000948804709480047FEE7FEE76D
:10024000FEE7FEE7FEE7FEE7FEE7FEE7FEE7FEE786
:1002500004480549054A064B704700002935000847
:10026000ED000008E8000020E8060020E802002079
:10027000E80200200FB41CB5084B06AA7B4469466F
:100280000090059800F00DF904460020694600F042
:100290001BF920461CBC5DF814FB0000490200005D
:1002A00010B5431C02E010F8011B71B18107FAD1AF
:1002B0004FF0013202C88C1A8C4314EAC211F9D0F3
:1002C000C01A0A0603D0C01E10BDC01A10BD0A0411
:1002D00001D0801E10BD0902FCD0401E10BD4FF0A1
:1002E000000200B5134694469646203922BFA0E886
:1002F0000C50A0E80C50B1F12001BFF4F7AF090792
:1003000028BFA0E80C5048BF0CC05DF804EB890082
:1003100028BF40F8042B08BF704748BF20F8022BC5
:1003200011F0804F18BF00F8012B704770477047DD
:10033000704770B5044685690068C10601D530264E
:1003400000E02026C00707D070BDD4E90121304667
:100350009047206A401C20626D1EF6D570BD70B5B6
:10036000044685690078C00707D170BDD4E9012132
:1003700020209047206A401C20626D1EF6D570BD7B
:1003800009684A0501D540B27047C905FCD500B2DD
:10039000704709684A0501D5C0B27047C905FCD548
:1003A00080B2704770B50C460546012A05D0287802
:1003B000800600D5EA69002302E0012305E05B1C0A
:1003C000934202D2E05C0028F9D1A869E618C01A6D
:1003D000A861286A184428622846FFF7AAFF04E0AB
:1003E000D5E9012114F8010B9047B442F8D328460F
:1003F000FFF7B5FF70BD00002DE9F041064600246F
:1004000010687529314616A510D0FFF7B9FF0028EE
:1004100002DA404213A507E031688A0701D512A528
:1004200002E0490704D511A5012401E0FFF7B1FF5F
:1004300000210A2206F1240709E0B0FBF2FCB0FB20
:10044000F2F302FB1C00303078541846491C002897
:10045000F3D123462A463046BDE8F04100F061BAA8
:10046000000000002D0000002B0000002000000014
:1004700011680268006A530501D508700AE0D305C7
:1004800001D5088006E0130603D5C217C1E90002B2
:1004900000E008600120704701694A1C0261087889
:1004A000704700B58FB0CDE90131002105910549B4
:1004B0007944CDE903101146684600F029F90FB0E0
:1004C00000BD0000E5FFFFFF0A6802F8010B0A60AB
:1004D000704700002DE9FF5F15468A460446DFF8A5
:1004E000AC80F8440027D8E900103E46CDE9001062
:1004F00010E03AF816106A4602A800F023FE411CEC
:1005000007D02178890603D5E269391891420DD8C0
:100510000744761C2078800602D5E069B84205DDE4
:10052000AE42E6DB3AF816000028E2D1A069C01B13
:10053000A0612046FFF7FDFED8E90010CDE90010CC
:10054000002017E03AF818106A4602A800F0FAFDF9
:10055000B0F1FF3F81460BD000250DF1080B05E0FF
:10056000D4E901211BF8050090476D1C4D45F7D3D8
:1005700008F10100B0428046E4DB206A3844206282
:100580002046FFF7ECFEBDE8FF9F00009240000010
:100590002DE9F0418046D21D22F007020025D2E964
:1005A0000002F52915A614D0011E72F1000106DA29
:1005B0000023D0EB030063EB020211A608E0D8F899
:1005C00000108B0701D50FA602E0490701D50EA642
:1005D00001251146002408F1240704E000F05CF92D
:1005E00030323A55641C50EA0102F7D12B463246AC
:1005F00021464046BDE8F04100F093B900000000FC
:100600002D0000002B0000002000000030B400216D
:1006100000F1240408E002F00705D208303542EA70
:100620004372DB086554491C52EA0305F3D10468A0
:10063000002310A2250708D504F020040C4304D0A1
:10064000C46901230CA2641EC46130BC00F069B906
:1006500010B5044621461068FFF79BFE024620466F
:10066000BDE810400023D1E7D21D22F00701D1E9F7
:100670000023CBE70000000030000000F0B40D467E
:100680000188090502D5214C7C4402E01F4C7C44C2
:100690000E34002100F1240608E002F00F071209D1
:1006A000E75D42EA03721B097754491C52EA0307CB
:1006B000F3D102780023120704D5702D06D009B1BA
:1006C000022311342246F0BC00F02BB90123103470
:1006D000F8E770B504460D4621461068FFF759FE4D
:1006E000024629462046BDE870400023C6E7D21DD9
:1006F00022F00703D3E90023C0E70368126843F040
:10070000200303600823C3610023B7E7F43E000021
:100710002DE9F05F894604464FF0000ADFF874B116
:10072000FB44C0F820A02046E1688847002874D028
:10073000252806D0D4E901219047206A401C206278
:10074000F1E700265F462046E168884720280546F5
:1007500007DB312D05D2781910F8200C08B10643BB
:10076000F1E7B00701D526F00406C4F81CA0002765
:10077000C4F818A02A2D09D0284603F01FFC38B36E
:1007800004EB8708303DC8F8185019E059F8041BED
:10079000204604EB87029161E1688847012F0546F6
:1007A00018D1E069002820DA26F020061DE0D8F8EC
:1007B000180000EB800005EB40003038C8F8180046
:1007C0002046E1688847054603F0F8FB0028EED193
:1007D000012F0AD02E2D08D12046E16888477F1CC2
:1007E0000546022F46F02006C4DBA069002803DA84
:1007F000404246F00106A061F00701D026F0100645
:100800006C2D0BD0682D09D04C2D39D06A2D35D0E8
:10081000742D35D07A2D33D016E038E0E1682F46BC
:1008200020468847B842054609D16C2F26D04FF4A0
:100830008060E168064320468847054604E06C2F47
:100840001AD04FF4807006430DB3A5F1410019286A
:1008500002D8203546F400664A46294620462660DE
:100860004E46FFF77DFC80B101280BD0F61D26F027
:10087000070000F1080956E74020E4E78020D8E7A8
:100880000020D6E706F104094DE7284652E7206A22
:10089000BDE8F09F843E000030B5B0F10A0271F16E
:1008A00000034FEA900E4EEA817EB0EB0E0061EB42
:1008B00091014FEA101E4EEA017E10EB0E0041EB53
:1008C00011114FEA102E4EEA016E10EB0E0041EBB3
:1008D00011214FEA104E4EEA014E10EB0E0041EB93
:1008E0001141401841F100014FEAD00040EA417047
:1008F0004FEAD1014FEA810444EA907410EB80057D
:1009000044EB01046D1944EB0404521BA3414FF066
:10091000000348BF0A3200D530BD401C41F1000140
:1009200030BD2DE9F0470D4699469246044600F148
:1009300024080168880604D5E06921F010012160CF
:1009400000E00120A84201DD471B00E00027A1696B
:100950007A1902EB0900081AA0612078C00602D4B7
:100960002046FFF7E6FC002608E0D4E901211AF84A
:1009700006009047206A401C761C20624E45F4DB3E
:100980002078C0060AD52046FFF7D3FC06E0D4E95C
:10099000012130209047206A401C2062381EA7F1B8
:1009A0000107F4DC07E0D4E9012118F805009047BD
:1009B000206A401C2062281EA5F10105F3DC2046B8
:1009C000FFF7CDFC2078000602D50220BDE8F087B5
:1009D0000120FBE72DE9FF4F0C461E464FF0FF3785
:1009E0008BB0D2E90001DDF860800A908A46C1F33D
:1009F0000A5505B93D46002108464FF00000BAF1FE
:100A0000000F00F4400005DA00EB80004FF44001D5
:100A100001EA50004FEA9059B9F1010F00DDB946E3
:100A20000A9850EA4A000ED044F61050A5F2FF355D
:100A300045432F14B8F1000F1ED07542291E1EDD4C
:100A4000C9F100021CE0B8F1010F4FF0000001D025
:100A5000302103E0F24305E02154401CB042FBDBAF
:100A600030460022002121540B99C1F80880C1E9C9
:100A700000200FB0BDE8F08FBD1B6D1CDEE74A46BD
:100A800000DA694206A800F0F3FB06AB93E8070022
:100A900003AB83E8070050460A9902F0B2FE8DE8E6
:100AA0000700A0F500501F3800900398002D0ADDC4
:100AB00042F21F014A460844002303A903906846F6
:100AC00003F01CF909E0A0F500504A461F38002346
:100AD00003A90390684603F026F98DE80700000497
:100AE000000C03D04FF0FF30410800E01046B8F191
:100AF000000F03D00022009215461EE0751E05D49B
:100B0000FFF7CAFE303262556D1EF9D5B346012299
:100B1000084302D000227F1C04E02078302801D155
:100B200000227F1E002A099784D01DE0112D07DACC
:100B3000FFF7B2FE303262556D1C50EA0102F5D16A
:100B4000084302D00098C8B10EE00021681E05E0FD
:100B5000235C625C63542254401E491C8142F7DBD3
:100B6000AB46A81B401E0990002004F80B000B9810
:100B7000099AC0F80880C0E9002B7AE711264FF0E7
:100B8000000857E72DE9F04F88460446D21D22F0B1
:100B9000070191B0D1E90001CDE90A0103F0FAF9AA
:100BA00002460B98C00F01D02D2007E02068810776
:100BB00001D52B2002E0202101EAC000032A099080
:100BC00001D0072A05DB03464146204600F010FB12
:100BD0000BE12078800601D5E06900E00620B8F13D
:100BE000650F814606D0B8F1660F18D0B8F1670FCF
:100BF00070D131E00020B9F1110F009001DB112319
:100C000001E009F101030AAA01A90CA8FFF7E2FE1D
:100C1000DDE90C70002609F10105834647E001205B
:100C20004B4600904FF000470AAA01A90CA8FFF715
:100C3000D1FEDDE90DB00C995D46002610B909F131
:100C400001000D18B9EB050003D4C0F1FF3609F11E
:100C50000105A5EB09002BE0B9F1010F01DA4FF016
:100C600001090020B9F1110F0090484601DD112360
:100C700000E003460AAA01A90CA8FFF7ABFEDDE9D4
:100C80000C704D4600268346207800070AD4AB45F9
:100C900000DA5D4601A8012D04DD411911F8011C9F
:100CA000302907D04F4502DA17F1040F04DA01208A
:100CB00082460FE06D1EEEE7002F02DCED1B3E4486
:100CC00003E0781CA84200DD7D1CB81B00F1010A7E
:100CD0004FF000472078000703D4AA4501DB4FF00E
:100CE000FF3A0021B7F1004F0DF143088DF8431092
:100CF00024D002202B23002F01DA7F422D230A214A
:100D0000021EA0F1010000DC5FB197FBF1FC97FB34
:100D1000F1F201FB1C7C17460CF1300C08F801CDF8
:100D2000EEE7A8F1010003702188090501D54521EE
:100D300000E06521A0F1010800F8011C09980FA945
:100D4000A1EB0807FF1D00B10120411901EBEA707A
:100D5000A1693844081A401EA0612078C00602D458
:100D60002046FFF7E6FA099828B1D4E90121904717
:100D7000206A401C20622078C00622D52046FFF75A
:100D8000D8FA1EE0002E04DBB34502DD01A8805D29
:100D900000E03020D4E901219047206A401C206205
:100DA000761CAAF101005FEA000A0AD100F01CFAE1
:100DB000C0680168405CD4E901219047206A401C6A
:100DC0002062281EA5F10105DCDC07E0D4E9012141
:100DD00018F8010B9047206A401C2062381EA7F1CA
:100DE0000107F3DC2046FFF7BAFA032011B041E611
:100DF0002DE9F04F04460D46D21D22F0070089B0C0
:100E0000D0E900974846394603F0C4F80246F80F87
:100E100001D02D2307E02068810701D52B2302E0B4
:100E2000202101EAC0038DF820300BB1012000E041
:100E30000020032A824601D0072A04DB29462046E7
:100E400000F0D6F93FE12078800601D40D2500E0BE
:100E5000E569C7F30A560D2D49DA00214FEA175B01
:100E600008464FF00000002F00F4400007DA00EBC6
:100E700080004FF4400100EBD07001EA6000811562
:100E8000012901DD4FF0FF3100224FEA850CBCF152
:100E9000180F06D31346ACF118004FF08052C24031
:100EA00003E04FF4801323FA0CF30CF10C0CBCF1AB
:100EB000200F04D3ACF1200C09FA0CF001E007FA82
:100EC0000CF000294FF0004801DD18B90FE00ED1F9
:100ED00040450CD319EB02095F4121B9404502D1CD
:100EE0009F4329EA0209BBEB175F00D0761C2088DC
:100EF000000502D57B48784402E07A4878441938E6
:100F000008AA302302F80A30037C0AF10101002EFE
:100F10000AF1020A53546A4602DC4FF0300101E044
:100F20004FF031014FF001088DF8001002D0A6F209
:100F3000FF3603E059EA470100D06B4E002D02DC7A
:100F40002178090704D54FF002082E218DF80110F1
:100F5000C44600210BE0C7F303433F01C35C491CB7
:100F60006D1E02F80830052908F1010801DA002D8C
:100F7000F1DC00210CE000EB1973491C1B786D1E9D
:100F8000082902F808304FEA091908F1010801DAC6
:100F9000002DF0DC21688B0602D516E0A8F10108CF
:100FA000E04505DD02EB080313F8013C302BF5D0DA
:100FB000B8F1000F09DD02EB080313F8013C2E2BFA
:100FC00003D1090701D4A8F10108002D05DD3E2158
:100FD00002F808106D1E08F10108407C002E02F88E
:100FE000080008F1010804DA2D20764202F8080012
:100FF00002E02B2002F808000A214FF47A708642A2
:1010000008F101080BDB96FBF0F3303302F80830EF
:1010100096FBF0F308F1010800FB136601E0642E73
:101020000CDB642096FBF0F3303302F8083096FBBB
:10103000F0F308F1010800FB136601E00A2E06DB5D
:1010400096FBF1F0303002F8080008F1010896FB39
:10105000F1F001FB1060303002F80800A16908F1DE
:10106000010808EB050202EB0A00081AA0612078CB
:10107000C00602D42046FFF75CF9216A08AE01EBF6
:101080000A00206204E0D4E9012116F8010B904720
:10109000BAF1010AF7D22078C00602D52046FFF740
:1010A00048F96E4609E016F8010B3E280FD0D4E946
:1010B00001219047206A401C2062B8F10108F2D259
:1010C0002046FFF74CF909B00320BDE8F08F206AF5
:1010D0002844206203E0D4E90121302090476D1EAE
:1010E000EBD3F8E7D236000002FCFFFF10B54369EE
:1010F00013B1AFF3008001E0FFF754F9012010BDF8
:10110000127800F124010A7000224A700122EDE7F2
:1011100011684FF0FF32E9E710B5436913B1AFF33F
:10112000008001E0FFF7D6F9012010BD128800F120
:10113000240182840022C2840122EDE711684FF06D
:10114000FF32E9E72DE9F04116460C46054600F06E
:1011500043F8036893F80101012807D0FF2C12D847
:10116000185D80B101202C70BDE8F081D3F8070133
:101170003246214603F20713C7182846BC46BDE88D
:10118000F041002360474FF0FF30EDE7754600F077
:10119000EBF8AE4605006946534620F00700854649
:1011A00018B020B5FFF754F8BDE820404FF0000616
:1011B0004FF000074FF000084FF0000BAC46ACE8D2
:1011C000C009ACE8C009ACE8C009ACE8C00921F02E
:1011D00007018D467047000010B500F005F8001DAE
:1011E00010BD00BF152E00000048704730000020E1
:1011F0002DE9F0411F46044603260168072A01F441
:10120000006004DB08B116A505E016A503E008B1EF
:1012100015A500E015A521F010002060A069C01EF2
:10122000A0610FB1401EA0612046FFF782F84FB1C8
:10123000D4E9012138469047206A401C2062C01C36
:10124000206206E0206AFAE7D4E9012115F8010BD3
:101250009047761EF8D22046FFF781F8BDE8F0816E
:101260004E414E006E616E00494E4600696E66004A
:101270002DE9F047814616468AB0354878440DC8B6
:101280008DE80D0032487844801C03AC0DC884E81A
:101290000D0041F69B300844372190FBF1F290FBA2
:1012A000F1F5A5F1800501FB12041B3C02D5644257
:1012B000012000E00020DFF898A080460027FA44D3
:1012C000AAF1BE0A0EE0E0070AD03246684607EBF4
:1012D000470101230AEB810102F025FD8DE807009B
:1012E00064107F1C002CEED1194F7F44AE3F19E0F3
:1012F000E80715D007EB04100DF1180A90E80E006E
:101300008AE80E00C068F04201D198190890324670
:10131000012306A903A802F006FD03AB83E807003A
:101320006D10641C002DE3D14FF001033246694675
:10133000B8F1000F03A802D002F0E0FC01E002F0D7
:10134000F2FCC9E90001C9F808200AB0BDE8F0873D
:10135000DC33000010B50446AFF300802046BDE842
:101360001040FEF760BF00000048704710000020EA
:101370004FF0013C50F8042B51F8043B9A4221D124
:10138000A2EB0C03934313EACC1317D150F8042BB0
:1013900051F8043B9A4215D1A2EB0C03934313EA94
:1013A000CC130BD150F8042B51F8043B9A4209D1CD
:1013B000A2EB0C03934313EACC13DBD04FF00000F5
:1013C000704700BFD01A01BAB1FA81F101F01801DB
:1013D00022FA01F0CB40DBB2C0B2C01AC1F1200149
:1013E0002CFA01F3D11A914311EAC311E6D17047E7
:1013F00001491820ABBEFEE726000200704700003E
:1014000080B584B002900020019002980068806846
:10141000C00770B3FFE702980168886820F00100F8
:10142000886000F085FE0190FFE702980068806800
:10143000C007E8B1FFE700F07BFE0199401A0328DE
:1014400015D3FFE7029800688068C00770B1FFE716
:101450000299886A40F0100088620299C86A40F0D8
:101460000100C86201208DF80F0006E0FFE7DCE70D
:10147000FFE700208DF80F00FFE79DF80F0004B094
:1014800080BD000080B584B00290002001900090E3
:10149000029800688068C007002849D1FFE70298D9
:1014A0000168886840F00100886040F20000C2F2E4
:1014B000000000684DF68361C4F21B31A0FB0110EF
:1014C000800C0090FFE7009820B1FFE700980138FA
:1014D0000090F8E700F02CFE0190FFE7029800680A
:1014E0008068C00718BBFFE700F022FE0199401A90
:1014F00003281BD3FFE7029800688068C007A0B9E3
:10150000FFE70299886A40F0100088620299C86A71
:1015100040F00100C862FFE70299002081F8240032
:10152000FFE701208DF80F0006E0FFE7D6E7FFE7B1
:1015300000208DF80F00FFE79DF80F0004B080BD7C
:10154000FFE7FEE77047000081B0EFF3108072B64E
:101550000090FFE7FEE7000085B0039002910020B5
:101560008DF807000090FFE7039890F82400012809
:1015700004D1FFE702208DF81300C3E00399012096
:1015800081F82400FFE7FFE702984068062812D898
:10159000FFE703980068406B029A1168526802EBFB
:1015A0008202053A1F2393409843914008430399D0
:1015B0000968486329E0029840680C2812D8FFE7C0
:1015C00003980068006B029A1168526802EB82026D
:1015D000233A1F2393409843914008430399096895
:1015E000086311E003980068C06A029A11685268A3
:1015F00002EB8202413A1F239340984391400843F3
:1016000003990968C862FFE7FFE7029800680A28A3
:1016100012D3FFE703980068C06802990A688968D6
:1016200002EB42021E3A072393409843914008433D
:1016300003990968C86010E003980068006902997E
:101640000A68896802EB420207239340984391405D
:101650000843039909680861FFE7029800681028A9
:1016600005D0FFE702980068112840D1FFE70398F2
:10167000006842F20041C4F2010188422DD1FFE727
:101680000398006880680002002825D4FFE70398CB
:101690000168886840F4000088600298006810289B
:1016A00019D1FFE740F20000C2F2000000684DF6D9
:1016B0008361C4F21B31A0FB0110800C00EB8000A1
:1016C00040000090FFE7009820B1FFE70098013844
:1016D0000090F8E7FFE7FFE708E00399886A40F029
:1016E0002000886201208DF80700FFE7FFE7FFE791
:1016F0000399002081F82400FFE79DF807008DF88A
:101700001300FFE79DF8130005B0704781B000900B
:1017100000980068C06C01B07047000080B588B0C8
:10172000069000208DF81700049003900290069810
:1017300020B9FFE701208DF81F00F4E006988068CB
:1017400030B1FFE70698007D08B1FFE7FFE7FFE74C
:101750000698806A50B9FFE706990020C86206998A
:1017600081F82400069800F0E3F8FFE70698FFF7F9
:1017700047FE8DF817000698806AC006002800F121
:10178000C480FFE79DF81700002840F0BE80FFE707
:101790000698806A40F0020020F48850069988621A
:1017A00006994868CA691043097B40EA41010398D9
:1017B00008430390069881680120B1F5807F01906D
:1017C00008D0FFE7069880680138B0FA80F0400939
:1017D0000190FFE701990498CA0740F48071002A3C
:1017E00018BF084604900698007D01281ED1FFE727
:1017F0000698007B70B9FFE7069881694EF20000F9
:10180000CFF6FF7000EB41300499084340F40060CC
:1018100004900AE00699886A40F0200088620699E0
:10182000C86A40F00100C862FFE7FFE70698006859
:10183000406820F4694004990843069909684860A3
:101840000698006880684FF2FD71CFF6E17108409C
:101850000399084306990968886006988168012001
:10186000B1F5807F009008D0FFE7069880680138C6
:10187000B0FA80F040090090FFE7009800F0010006
:10188000002818BF4FF48070B0F5807F09D1FFE7C2
:10189000069801690020CFF6F07000EB015002902D
:1018A000FFE706980068C06A20F4700002990843B8
:1018B00006990968C86206980068806840F6FE616B
:1018C000CFF61F710840039988420CD1FFE70699B3
:1018D0000020C8620698806A40F0010020F00200F3
:1018E0000699886210E00698806A40F0100020F0A7
:1018F0000200069988620699C86A40F00100C86231
:1019000001208DF81700FFE708E00699886A40F08B
:101910001000886201208DF81700FFE79DF817007E
:101920008DF81F00FFE79DF81F0008B080BD000084
:1019300080B588B007900020069005900490039031
:101940000798006842F20041C4F2010188422AD19E
:10195000FFE7FFE741F21800C4F20200016841F41A
:1019600000710160006800F4007002900298FFE7C7
:10197000FFE741F21800C4F20200016841F00401DF
:101980000160006800F0040001900198FFE7012069
:1019900003900320049040F60000C4F2010003A964
:1019A00000F044FAFFE708B080BD000080B58CB0BD
:1019B0000A900991002008900790069000F0B8FB6B
:1019C00008900A9800688068C00500280FD5FFE7D6
:1019D0000A99886A40F020008862FFE70A9900208F
:1019E00081F82400FFE701208DF82F001CE10A9800
:1019F00000684068C005002838D4FFE70A980068EE
:101A0000C06A10F4700F31D1FFE7FFE70A98006851
:101A100000688007002828D4FFE70998013018B330
:101A2000FFE7099840B1FFE700F082FB0899401AF0
:101A30000999884217D9FFE70A980068006880076B
:101A400000280FD4FFE70A99886A40F004008862F2
:101A5000FFE70A99002081F82400FFE703208DF8B2
:101A60002F00E1E0FFE7FFE7D0E7B0E040F2000041
:101A7000C2F2000000680490022000F0FDFB014665
:101A80000498B0FBF1F005900A980068006944F6EC
:101A90002411C2F2924108422BD1FFE70A98006854
:101AA000C06844F62411C0F29201084221D1FFE738
:101AB0000A9800680169002042F29242C1F249226C
:101AC000114203900DD1FFE70A980068C06842F206
:101AD0009241C0F249010840B0FA80F040090390F9
:101AE000FFE70398C1072920002918BF142002909E
:101AF00039E00A980068006942F29241C1F2492136
:101B000008420CD1FFE70A980068C168012042F240
:101B10009242C0F24902114201901CD0FFE70A989C
:101B200000680169002049F24922C0F224021142F2
:101B300000900DD1FFE70A980068C06849F249217A
:101B4000C0F224010840B0FA80F040090090FFE79D
:101B500000980190FFE70198C107FC20002918BFF9
:101B600054200290FFE70598029948430690FFE74A
:101B700007980699884229D2FFE70998013008B3EF
:101B8000FFE7099840B1FFE700F0D2FA0899401A40
:101B90000999884215D9FFE70798069988420FD21C
:101BA000FFE70A99886A40F004008862FFE70A9913
:101BB000002081F82400FFE703208DF82F0033E098
:101BC000FFE7FFE7079801300790D1E7FFE70A98A2
:101BD00001686FF0120008600A99886A40F400708A
:101BE00088620A980068806800F46020B0F5602F71
:101BF00016D1FFE70A98007B90B9FFE70A99886A37
:101C000020F4807088620A98806AC004002806D494
:101C1000FFE70A99886A40F001008862FFE7FFE762
:101C200000208DF82F00FFE79DF82F000CB080BD3D
:101C300080B584B0029000208DF80700FFE702987D
:101C400090F82400012804D1FFE702208DF80F004E
:101C5000C5E00299012081F82400FFE7FFE7029820
:101C6000FFF710FC8DF807009DF80700002840F0F2
:101C7000AA80FFE70298806A40F4807040F2012158
:101C80008843029988620298006842F60001C4F213
:101C90000101884209D1FFE742F20440C4F2010089
:101CA000006810F4702F03D018E00020B0B9FFE7EF
:101CB0000299886A20F4801088620298006840685F
:101CC0004005002809D5FFE70298806A40F480505B
:101CD00020F4005002998862FFE72CE00299886A9C
:101CE00040F4801088620298006842F20041C4F219
:101CF0000101884209D0FFE70298006842F600011E
:101D0000C4F20101884209D1FFE742F20440C4F263
:101D1000010000684005002803D40BE0012048B909
:101D2000FFE70298806A40F4805020F40050029946
:101D30008862FFE7FFE70298806AC004002806D5A2
:101D4000FFE70299C86A20F00600C86203E0029922
:101D50000020C862FFE7FFE70299002081F8240015
:101D6000FFE7029801686FF00200086002980068BF
:101D7000806800F46020B0F5602F1CD1FFE7029866
:101D8000006842F60001C4F20101884209D1FFE770
:101D900042F20440C4F20100006810F4702F03D036
:101DA00009E0002038B9FFE702980168886840F42C
:101DB000A000886006E002980168886840F48010FE
:101DC0008860FFE706E0FFE70299002081F8240021
:101DD000FFE7FFE79DF807008DF80F00FFE79DF88C
:101DE0000F0004B080BD000080B584B0039000F007
:101DF0009FF90290039801900198013048B1FFE7E4
:101E000040F20400C2F200000178019808440190F9
:101E1000FFE7FFE700F08CF90299401A0199884228
:101E200001D2FFE7F6E704B080BD00008FB00E904E
:101E30000D9100200C900890FFE70D9800680C9918
:101E4000C840002800F07181FFE70C99012088400C
:101E50000B900D9800680B9908400A900A980B990E
:101E6000884240F05E81FFE70D98406804900028AA
:101E700051D0FFE7049801283AD0FFE704980228E0
:101E80003FD0FFE7049803285FD0FFE704981128AC
:101E900032D0FFE70498122838D0FFE704980021D9
:101EA000C1F21101884236D0FFE704980021C1F247
:101EB000120188422FD0FFE704980021C1F22101CE
:101EC000884228D0FFE704980021C1F2220188420D
:101ED00021D0FFE704980021C1F2310188421AD0D5
:101EE000FFE704980021C1F23201884213D02FE0AD
:101EF0000D98C06808902CE00D98C06804300890D8
:101F000027E00D98C0680830089022E00D98C0685E
:101F10000C3008901DE00D98806818B9FFE7042088
:101F2000089011E00D988068012806D1FFE708208D
:101F300008900B980E99086105E0082008900B980E
:101F40000E994861FFE7FFE703E00020089000E0FA
:101F5000FFE70A98FF2803D8FFE70E98039003E0F5
:101F60000E9804300390FFE7039807900A98FF2823
:101F700004D8FFE70C988000029006E00C996FF0FF
:101F80001F0000EB81000290FFE70298069007987F
:101F90000068069A0F2191408843089991400843B0
:101FA000079908600D98C079C006002840F1B880F4
:101FB000FFE7FFE741F21800C4F20200016841F0B8
:101FC00001010160006800F0010005900598FFE73D
:101FD0000C9820F003000821C4F201014058099038
:101FE0000C9800F0030081000F2000FA01F109981D
:101FF000884309900E9840F60001C4F2010188421E
:1020000003D1FFE70020019018E00E9840F6004150
:10201000C4F20101884203D1FFE7012000900AE0E9
:102020000E9941F20002C4F201020320914208BF5E
:1020300002200090FFE700980190FFE701980C99BB
:1020400001F00301890000FA01F1099808430990A1
:1020500009980C9921F003010822C4F2010288506A
:102060000D988079C00748B1FFE70A9A40F2004115
:10207000C4F2010108681043086008E00A9A40F2BF
:102080000041C4F20101086890430860FFE70D9821
:1020900080798007002809D5FFE70A9A40F20441B9
:1020A000C4F2010108681043086008E00A9A40F28F
:1020B0000441C4F20101086890430860FFE70D98ED
:1020C0008079C006002809D5FFE70A9A40F2084146
:1020D000C4F2010108681043086008E00A9A40F25F
:1020E0000841C4F20101086890430860FFE70D98B9
:1020F00080798006002809D5FFE70A9A40F20C4152
:10210000C4F2010108681043086008E00A9A40F22E
:102110000C41C4F20101086890430860FFE7FFE743
:10212000FFE70C9801300C9087E60FB07047000075
:1021300040F2E400C2F200000068704740F2040080
:10214000C2F20000027840F2E401C2F20001086825
:10215000104408607047000080B542F20001C4F2EC
:102160000201086840F010000860032000F07CF8CD
:102170000F2000F005F800F03BF8002080BD0000C3
:1021800080B582B0009040F20000C2F2000000680A
:1021900040F20401C2F200010A784FF47A71B1FBF7
:1021A000F2F1B0FBF1F000F031FF20B1FFE70120C8
:1021B0008DF8070018E000980F280DD8FFE7009968
:1021C0004FF0FF30002200F035F8009840F208018F
:1021D000C2F20001086003E001208DF8070003E06F
:1021E00000208DF80700FFE79DF8070002B080BDD2
:1021F00082B0FFE741F21800C4F20200016841F02A
:1022000001010160006800F0010001900198FFE702
:10221000FFE741F21C00C4F20200016841F0805166
:102220000160006800F0805000900098FFE702B065
:102230007047000080B586B08DF8170004910392B6
:102240000020029001F020FA02909DF91700019001
:1022500002980499039A01F0A3F80146019801F04D
:102260001BFA06B080BD000080B582B001900198D5
:1022700001F034FA02B080BD80B58CB00B9040F60E
:102280000E70C1F210000A9040F60A30C0F60C50F1
:10229000099040F20670C0F60810089040F2023033
:1022A000C0F20450079040F20120ADF81A0000205F
:1022B000059004900390029001900B9800900128E3
:1022C00063D0FFE70098022800F0A280FFE70098A3
:1022D000102840F0AD80FFE741F20400C4F2020094
:1022E0000068029041F20000C4F202000068C001E0
:1022F000002849D5FFE70298C0F3834107A8405C56
:1023000003909DF80A00C007F0B1FFE741F2040016
:10231000C4F20200006800F400310DF11A0040EA36
:102320005140007805909DF80A00C00758B1FFE7BA
:10233000059941F20020C0F27A00B0FBF1F0039958
:1023400048430490FFE707E0039840F60011C0F20D
:102350003D0148430490FFE741F20400C4F202004B
:1023600000684002002803D5FFE7049801900AE0C6
:10237000049840004AF6AB21CAF6AA21A0FB01103E
:1023800040080190FFE7FFE753E041F22000C4F26C
:10239000020000680290029800F44070B0F5807F5F
:1023A0000AD1FFE79DF808008007002804D5FFE761
:1023B0004FF4004001902AE0029800F44070B0F51C
:1023C000007F0DD1FFE741F22400C4F20200006853
:1023D0008007002804D5FFE749F64040019015E04A
:1023E000029800F44070B0F5407F0DD1FFE741F254
:1023F0000000C4F2020000688003002804D5FFE753
:102400004FF22440019000E0FFE7FFE7FFE710E014
:1024100000F03AFA41F20401C4F20201096801F441
:102420004042022101EB5231B0FBF1F0019000E09B
:10243000FFE701980CB080BD80B586B00490002005
:102440000390029004980078C007002800F0AC8048
:10245000FFE700208DF8070041F21C00C4F20200E3
:102460000068C000002813D4FFE7FFE741F21C001A
:10247000C4F20200016841F080510160006800F080
:10248000805000900098FFE701208DF80700FFE7DB
:1024900047F20000C4F200000068C005002822D402
:1024A000FFE747F20001C4F20001086840F48070C1
:1024B0000860FFF73DFE0390FFE747F20000C4F21B
:1024C00000000068C00500280CD4FFE7FFF730FECD
:1024D0000399401A652804D3FFE703208DF81700FD
:1024E0008AE0EAE7FFE741F22000C4F20200006858
:1024F00000F4407002900298E0B3FFE7029804995C
:10250000496801F44071884234D0FFE741F220016C
:10251000C4F20201086820F44070029040F2404288
:10252000C4F242220120106000201060029808606E
:102530009DF80800C007E0B1FFE7FFF7F9FD039041
:10254000FFE741F22000C4F2020000688007002883
:102550000ED4FFE7FFF7ECFD0399401A41F28931F1
:10256000884204D3FFE703208DF8170044E0E8E732
:10257000FFE7FFE741F22001C4F20201086820F4FE
:102580004070049A5268104308609DF807000128C3
:1025900009D1FFE741F21C01C4F20201086820F0F2
:1025A00080500860FFE7FFE7049800788007002864
:1025B0000CD5FFE741F20401C4F20201086820F4DF
:1025C0004040049A926810430860FFE7049800783E
:1025D000C00600280CD5FFE741F20401C4F2020155
:1025E000086820F48000049AD26810430860FFE76E
:1025F00000208DF81700FFE79DF8170006B080BD9A
:1026000080B584B002900191029820B9FFE70120C3
:102610008DF80F001BE1019842F20001C4F20201A3
:10262000096801F00701884216D9FFE742F200006D
:10263000C4F20200016821F00701019A1143016010
:10264000006800F007000199884204D0FFE70120EC
:102650008DF80F00FBE0FFE7029800788007002864
:102660002AD5FFE7029800784007002809D5FFE740
:1026700041F20401C4F20201086840F4E06008601D
:10268000FFE7029800780007002809D5FFE741F22C
:102690000401C4F20201086840F460500860FFE7DA
:1026A00041F20401C4F20201086820F0F000029A2D
:1026B000926810430860FFE702980078C00700287E
:1026C00060D0FFE70298406801280ED1FFE741F291
:1026D0000000C4F2020000688003002804D4FFE771
:1026E00001208DF80F00B2E021E002984068022836
:1026F0000ED1FFE741F20000C4F202000068800141
:10270000002804D4FFE701208DF80F009FE00DE0C2
:1027100041F20000C4F2020000688007002804D4DF
:10272000FFE701208DF80F0091E0FFE7FFE741F29E
:102730000401C4F20201086820F00300029A526802
:1027400010430860FFF7F4FC0090FFE741F204003B
:10275000C4F20200006800F00C0002994968B0EB76
:10276000810F0ED0FFE7FFF7E3FC0099401A41F21A
:102770008931884204D3FFE703208DF80F0066E01B
:10278000E4E7FFE7019842F20001C4F202010968A0
:1027900001F00701884216D2FFE742F20000C4F2BE
:1027A0000200016821F00701019A114301600068ED
:1027B00000F007000199884204D0FFE701208DF85E
:1027C0000F0044E0FFE702980078400700280CD58E
:1027D000FFE741F20401C4F20201086820F4E0605E
:1027E000029AD26810430860FFE702980078000759
:1027F00000280DD5FFE741F20401C4F20201086888
:1028000020F46050029A126940EAC2000860FFE7B3
:1028100000F04CF841F20401C4F202010968C9B2A7
:102820000A0944F27461C0F60001895CC84040F2B4
:102830000001C2F20001086040F20800C2F200008C
:102840000068FFF79DFC00208DF80F00FFE79DF862
:102850000F0004B080BD000040F20000C2F2000092
:102860000068704780B5FFF7F7FF41F20401C4F23A
:1028700002010968C1F3022244F28461C0F600013A
:10288000895CC84080BD000080B5FFF7E5FF41F2DC
:102890000401C4F202010968C1F3C22244F2846156
:1028A000C0F60001895CC84080BD00008BB040F6D6
:1028B0000E70C1F210000A9040F60A30C0F60C50BB
:1028C000099040F20670C0F60810089040F20230FD
:1028D000C0F20450079040F20120ADF81A00002029
:1028E0000590049003900290019041F20400C4F21C
:1028F000020000680590059800F00C000146009168
:10290000E0B3FFE70098042804D0FFE70098082808
:1029100006D034E041F20020C0F27A00019034E0A9
:102920000598C0F3834107A8405C02909DF816000B
:10293000C007C0B1FFE741F20400C4F20200006822
:1029400000F400310DF11A0040EA51400078049083
:10295000029841F20021C0F27A0148430499B0FB89
:10296000F1F0039007E0029840F60011C0F23D013B
:1029700048430390FFE70398019006E0FFE741F228
:102980000020C0F27A000190FFE701980BB0704779
:1029900080B586B00490049820B9FFE701208DF837
:1029A00017002EE304980078C007002800F0AE80DE
:1029B000FFE741F20400C4F20200006800F00C00DE
:1029C000042813D0FFE741F20400C4F202000068BB
:1029D00000F00C0008281BD1FFE741F20400C4F20C
:1029E00002000068C003002812D5FFE741F2000092
:1029F000C4F2020000688003002808D5FFE70498AD
:102A0000406820B9FFE701208DF81700F9E27CE06B
:102A1000FFE704984068B0F5803F09D1FFE741F235
:102A20000001C4F20201086840F48030086032E01E
:102A30000498406868B9FFE741F20001C4F202015E
:102A4000086820F480300860086820F4802008605E
:102A500020E004984068B0F5A02F0DD1FFE741F2C7
:102A60000001C4F20201086840F480200860086890
:102A700040F4803008600CE041F20001C4F2020131
:102A8000086820F480300860086820F4802008601E
:102A9000FFE7FFE7FFE7FFE704984068D0B1FFE7F3
:102AA000FFF746FB0390FFE741F20000C4F202008B
:102AB0000068800300280CD4FFE7FFF739FB039977
:102AC000401A652804D3FFE703208DF8170098E229
:102AD000EAE719E0FFF72CFB0390FFE741F2000063
:102AE000C4F202000068800300280CD5FFE7FFF75E
:102AF0001FFB0399401A652804D3FFE703208DF8D4
:102B000017007EE2EAE7FFE7FFE7FFE704980078B7
:102B10008007002840F18D80FFE741F20400C4F2F5
:102B20000200006810F00C0F13D0FFE741F2040020
:102B3000C4F20200006800F00C00082829D1FFE769
:102B400041F20400C4F202000068C003002820D44F
:102B5000FFE741F20000C4F202000068800700288D
:102B600009D5FFE704980069012804D0FFE7012098
:102B70008DF8170045E241F20001C4F20201086835
:102B800020F0F800049A526940EAC2000860FFE7AA
:102B90004EE00498006958B3FFE70021C4F24221D7
:102BA00001200860FFF7C4FA0390FFE741F200003C
:102BB000C4F202000068800700280CD4FFE7FFF78A
:102BC000B7FA0399401A032804D3FFE703208DF8CE
:102BD000170016E2EAE741F20001C4F202010868B8
:102BE00020F0F800049A526940EAC20008601EE032
:102BF0000021C4F2422100200860FFF799FA0390F7
:102C0000FFE741F20000C4F20200006880070028DC
:102C10000CD5FFE7FFF78CFA0399401A032804D379
:102C2000FFE703208DF81700EBE1EAE7FFE7FFE796
:102C3000FFE7049800780007002848D5FFE70498CC
:102C4000806918B3FFE740F28041C4F242210120BD
:102C50000860FFF76DFA0390FFE741F22400C4F229
:102C600002000068800700280CD4FFE7FFF760FA35
:102C70000399401A032804D3FFE703208DF81700B7
:102C8000BFE1EAE7012000F0C3FB1FE040F2804112
:102C9000C4F2422100200860FFF74AFA0390FFE7E0
:102CA00041F22400C4F202000068800700280CD51D
:102CB000FFE7FFF73DFA0399401A032804D3FFE723
:102CC00003208DF817009CE1EAE7FFE7FFE704988F
:102CD00000784007002840F1D880FFE700208DF8F9
:102CE000070041F21C00C4F202000068C000002886
:102CF00013D4FFE7FFE741F21C00C4F202000168B1
:102D000041F080510160006800F080500090009810
:102D1000FFE701208DF80700FFE747F20000C4F24B
:102D200000000068C005002822D4FFE747F2000138
:102D3000C4F20001086840F480700860FFF7F8F9F9
:102D40000390FFE747F20000C4F200000068C005EE
:102D500000280CD4FFE7FFF7EBF90399401A652828
:102D600004D3FFE703208DF817004AE1EAE7FFE705
:102D7000FFE70498C068012809D1FFE741F220016C
:102D8000C4F20201086840F00100086031E00498D4
:102D9000C06868B9FFE741F22001C4F20201086887
:102DA00020F001000860086820F0040008601FE0BF
:102DB0000498C06805280DD1FFE741F22001C4F254
:102DC0000201086840F004000860086840F0010053
:102DD00008600CE041F22001C4F20201086820F012
:102DE00001000860086820F004000860FFE7FFE7C2
:102DF000FFE7FFE70498C068E0B1FFE7FFF798F945
:102E00000390FFE741F22000C4F20200006880074F
:102E100000280ED4FFE7FFF78BF90399401A41F21F
:102E20008931884204D3FFE703208DF81700E8E0DA
:102E3000E8E71BE0FFF77CF90390FFE741F2200091
:102E4000C4F202000068800700280ED5FFE7FFF7F4
:102E50006FF90399401A41F28931884204D3FFE7A0
:102E600003208DF81700CCE0E8E7FFE79DF80700A6
:102E7000012809D1FFE741F21C01C4F202010868F0
:102E800020F080500860FFE7FFE70498C069002841
:102E900000F0B380FFE741F20400C4F202000068D2
:102EA00000F00C00082800F08280FFE70498C06959
:102EB00002285CD1FFE76021C4F2422100200860B3
:102EC000FFF736F90390FFE741F20000C4F2020079
:102ED0000068800100280CD5FFE7FFF729F9039966
:102EE000401A032804D3FFE703208DF8170088E079
:102EF000EAE70498006AB0F5803F0CD1FFE741F2A1
:102F00000401C4F20201086820F40030049A9268B7
:102F100010430860FFE741F20401C4F202010868AF
:102F200020F47410049B1A6A5B6A1A431043086009
:102F30006021C4F2422101200860FFF7F9F80390F4
:102F4000FFE741F20000C4F202000068800100289F
:102F50000CD4FFE7FFF7ECF80399401A032804D3D9
:102F6000FFE703208DF817004BE0EAE71EE0602141
:102F7000C4F2422100200860FFF7DAF80390FFE76F
:102F800041F20000C4F202000068800100280CD564
:102F9000FFE7FFF7CDF80399401A032804D3FFE7B2
:102FA00003208DF817002CE0EAE7FFE724E00498FF
:102FB000C069012804D1FFE701208DF8170020E047
:102FC00041F20400C4F2020000680290029800F48A
:102FD00080300499096A884208D1FFE7029800F41A
:102FE00070100499496A884204D0FFE701208DF8E7
:102FF000170006E0FFE7FFE7FFE700208DF8170066
:10300000FFE79DF8170006B080BD000080B582B0D4
:103010000190019800F01CFA02B080BD80B582B02A
:103020000090009820B9FFE701208DF807003EE0EE
:103030000098806908B1FFE700E0FFE7009890F88A
:103040003D0040B9FFE70099002081F83C0000985E
:1030500000F032F8FFE70099242081F83D00009845
:103060000168C86820F40050C860009800F05EFA5B
:1030700000980168086920F4904008610098016890
:10308000486920F02A00486100980168C86840F447
:103090000050C860009900200864009A202182F83E
:1030A0003D10009A82F83E108DF80700FFE79DF86A
:1030B000070002B080BD000080B58AB009900020F2
:1030C00008900790069005900998006843F6000163
:1030D000C4F20101884239D1FFE7FFE741F218004D
:1030E000C4F20200016841F480410160006800F40C
:1030F000804004900498FFE7FFE741F21800C4F213
:103100000200016841F004010160006800F0040061
:1031100003900398FFE74FF400700590022006909B
:103120000320089040F60000C4F20100019005A9B8
:103130000291FEF77BFE019802994FF4806205929E
:10314000002206920792FEF771FEFFE70AB080BDEB
:1031500080B58AB008900791ADF81A200593002039
:103160000290089890F83D00202840F09080FFE7FA
:10317000079820B1FFE7BDF81A0020B9FFE701204A
:103180008DF8270087E0FFE7089890F83C000128B9
:1031900004D1FFE702208DF827007CE00899012088
:1031A00081F83C00FFE7FFE70899002008640899D0
:1031B000212081F83D00FEF7BBFF0290BDF81A0008
:1031C00008998884BDF81A000899C884089880680E
:1031D000B0F5805F09D1FFE70898006928B9FFE7DB
:1031E000002004900798039004E0079804900020C2
:1031F0000390FFE7FFE70899002081F83C00FFE714
:10320000FFE70898C08C58B3FFE70898029B059920
:103210006A4611608021002200F0E6F920B1FFE744
:1032200003208DF8270036E0049858B9FFE703988B
:1032300000886FF35F20089909684860039802309E
:10324000039008E004980078089909684860049899
:1032500001300490FFE70899C88C0138C884D0E792
:103260000898029B05996A4611604021002200F0EF
:10327000BBF920B1FFE703208DF827000BE0089988
:10328000202081F83D0000208DF8270003E0022077
:103290008DF82700FFE79DF827000AB080BD0000E9
:1032A000FFE7FEE780B584B0002103910291019110
:1032B00040F27000C2F20000009042F20042C4F2FC
:1032C000010202608160017301754FF46022C261E6
:1032D000416001210161FEF721FA18B1FFE7FEF715
:1032E00033F9FFE70020019001210291039040F2A1
:1032F0007000C2F2000001A9FEF72EF918B1FFE735
:10330000FEF722F9FFE704B080BD000080B586B06B
:1033100000200590049003900290FFE741F218000E
:10332000C4F20200016841F004010160006800F08D
:10333000040001900198FFE7012002900320039010
:103340000020049040F60000C4F2010002A9FEF73C
:103350006DFD06B080BD000080B582B040F2A000D7
:10336000C2F20000019043F60001C4F201010160C5
:103370004FF41651416000218160C16001610C224F
:1033800042618161C161FFF749FE18B1FFE7FEF7B5
:10339000DBF8FFE702B080BDFFE7FEE7FFE7FEE7EF
:1033A00088B0079006910592079800F007000490F6
:1033B0000498C0F10700052803D3FFE7042001901B
:1033C00004E00498C0F107000190FFE70198039022
:1033D00004980430062803D8FFE70020009003E09B
:1033E000049803380090FFE700980290069803992C
:1033F000012202FA01F101390840029B9840059927
:103400009A40013A1140084308B0704770470000E5
:1034100082B00190019840F20001C2F200010968F7
:10342000C90844F6D352C1F26202A1FB0221890904
:1034300048430090FFE700BFFFE70098411E00915E
:103440000028F8D1FFE702B0704700007047000085
:1034500080B582B0009000980138B0F1807F03D32E
:10346000FFE70120019019E0009801384EF21401A5
:10347000CEF2000108604FF0FF300F2100F00CF990
:103480004EF21801CEF20001002008604EF2100248
:10349000CEF20002072111600190FFE7019802B00F
:1034A00080BD000080B5FEF749FE80BD80B596B0B6
:1034B0000CA801902821FCF712FF0198002102912D
:1034C0000B910A9109910891079106910591049138
:1034D000039102220C920122109210221192139158
:1034E000FFF756FA18B1FFE7FEF72EF8FFE70F20B7
:1034F00007900021089109910A910B9107A8FFF705
:103500007FF818B1FFE7FEF71FF8FFE702200390EE
:103510000020059003A8FEF78FFF18B1FFE7FEF724
:1035200013F8FFE716B080BD7047000080B584B087
:10353000039003980068006920F44050039A1168D2
:10354000D26810430861039988680A694969104381
:103550000843029003980068C06841F20C618843F8
:103560000299084303990968C86003980068406994
:1035700020F44070039A11689269104348610398DF
:10358000006843F60001C4F20101884204D1FFE75C
:10359000FFF77AF9019003E0FFF764F90190FFE784
:1035A000019819214843039A116852689200B0FBB0
:1035B000F2FC48F21F52C5F2EB12ACFB0230430999
:1035C000642003FB10CC322000EB0C10A0FB0202A5
:1035D000F02000EA521000EB0310C2F34312104433
:1035E000886004B080BD000080B586B0DDF820C0E2
:1035F000049003918DF80B200193FFE70498006875
:10360000006803990840401AB0FA80F040099DF81C
:103610000B1088422ED1FFE70898013048B3FFE72E
:10362000089840B1FFE7FEF783FD0199401A089919
:1036300088421DD9FFE704980168C86820F4D0705B
:10364000C86004980168486920F001004861049945
:10365000202081F83D00049981F83E00FFE704999D
:10366000002081F83C00FFE703208DF8170005E0FB
:10367000FFE7C3E700208DF81700FFE79DF817006C
:1036800006B080BDFFE7FEE74EF60C50CEF200001C
:103690000068C0F30220704782B08DF807000091E7
:1036A0009DF9070000280AD4FFE7009800019DF962
:1036B00007104EF20042CEF2000288540BE0009850
:1036C00000019DF8071001F00F014EF61452CEF2E2
:1036D00000028854FFE702B07047000083B00290F8
:1036E000029800F0070000904EF60C51CEF2000157
:1036F0000868019001984FF6FF0210400190019870
:10370000009A40EA02200022C0F2FA5210430190CF
:103710000198086003B0704780B594B00020139002
:10372000FEF71AFDFFF7C2FEFFF7F0FDFFF7BAFD47
:10373000FFF712FE4FF084400F90FFE740F2700059
:10374000C2F200000190FEF773FA01984FF0FF31CA
:10375000FEF72CF900284FD1FFE740F27000C2F2CB
:103760000000FDF7D3FF1290129800F0B9FD43F26C
:103770003331C4F2530100F02FFE4FF20001C4F2C6
:103780007F5100F0B7FC119011980021C4F2C821BC
:1037900000F022FE1090109800F04AFC02460B4602
:1037A00044F29A61C0F600010DF10A000090FCF7A6
:1037B00061FD0098FCF774FD009982B240F2A00010
:1037C000C2F200004FF0FF33FFF7C2FC10984FF039
:1037D000844100F07BFC70B9FFE740F2A000C2F228
:1037E000000044F28C61C0F600010E224FF0FF335E
:1037F000FFF7AEFCFFE7FFE74FF47A70FEF7F4FA4D
:103800009CE75FEA400C08BF91F0000F4FEA8C2361
:103810004FEAC12243EA51514FEA1C5018BF00F54C
:10382000F0404FEA300018BF41F000415FEA6C5CA5
:1038300000F02980BCF1FF3F08BF40F08040704796
:10384000130C06BF12044FF0100C4FF0000C130EB7
:1038500004BF12020CF1080C130F04BF12010CF18B
:10386000040C930F04BF92000CF1020CD30F04BFA1
:1038700052000CF1010C11464FF00002A0F11F00A4
:10388000A0EB0C00704711F0004F08BF704731F0FB
:1038900000413FF4D5AF0B0C06BF09044FF0100CEC
:1038A0004FF0000C0B0E04BF09020CF1080C0B0FBB
:1038B00004BF09010CF1040C8B0F04BF89000CF14B
:1038C000020CCB0F04BF49000CF1010CCCF120031A
:1038D00022FA03F341EA030102FA0CF2A0EB0C0016
:1038E00000F101007047000023F07F4720F07F4C7B
:1038F00080EA030000F00040ACEB070303F57C53C3
:1039000003F1FF032DE9804909B44FEA144324EA87
:1039100003484FEA154B25EA0B4E0FF2042606EB3F
:1039200013273E7803FB0667C7F5000707FB06F67B
:103930004FEAD64606F102064FEA543707FB066CFB
:10394000CCF1005C4FEA1C472CEA074C0CFB06F557
:1039500007FB06F404EB15464FEA961649085FEAA2
:10396000320234BF00204FF000404FEAD13706FB4F
:1039700007FC4FEA1C4C0CFB0BF7D21B03FB0CF7AC
:1039800061EB07010CFB0EF7B0EB074072EB17423F
:103990000CFB08F734BFA2EB0742B2EB074261EB26
:1039A00017414FEA0C444FEA910706FB07FC4FEA28
:1039B0001C4C0CFB0BF7B0EBC74072EB573203FB10
:1039C0000CF734BFA2EBC742B2EBC74261EB5731F1
:1039D0000CFB0EF7B0EBC70072EB57720CFB08F74D
:1039E00034BFA2EBC702B2EBC70261EB57714FEADB
:1039F000816141EA92114FEA826242EA90124FEAF3
:103A0000806004EBCC04039F4FEAD13706FB07FC30
:103A10004FEA1C4C0CFB0BF7D21B03FB0CF761EBC2
:103A200007010CFB0EF7B0EB074072EB17420CFBE3
:103A300008F734BFA2EB0742B2EB074261EB174134
:103A40004FEA8C5504EB9C244FEA910706FB07FCD8
:103A50004FEA1C4C0CFB0BF7B0EBC74072EB573234
:103A600003FB0CF734BFA2EBC742B2EBC74261EBDA
:103A700057310CFB0EF7B0EBC70072EB57720CFB23
:103A800008F734BFA2EBC702B2EBC70261EB577174
:103A90004FEA816141EA92114FEA826242EA901252
:103AA0004FEA806015EB4C2544F100044FEAD13712
:103AB00006FB07FC4FEA1C4C0CFB0BF7D21B03FB6D
:103AC0000CF761EB07010CFB0EF7B0EB074072EB54
:103AD00017420CFB08F734BFA2EB0742B2EB0742D8
:103AE00061EB17414FEA813141EA92414FEA82325C
:103AF00042EA90424FEA80304FEA0C7615EB1C15F3
:103B000044F1000448EA03434EEA0B484FF0000E2C
:103B1000B2EB080C71EB030724BF624639464EEB4B
:103B20000E0E4FF0000B0018524149414BEB0B0BAE
:103B3000B2EB080C71EB03077BF1000B24BF62466C
:103B400039464EEB0E0E4FF0000B00185241494122
:103B50004BEB0B0BB2EB080C71EB03077BF1000B8B
:103B600024BF624639464EEB0E0E51EA020718BFDB
:103B700046F0010616EB0E7655F1000254F10001F5
:103B800003D5BDE88901BDE80088BDE88901BDE82D
:103B90000048B619524141EB0101A3F101037047FE
:103BA00080807F7E7D7C7B7A79787776767574737A
:103BB000727171706F6E6E6D6C6C6B6A6A69686839
:103BC000676666656464636362616160605F5F5ECF
:103BD0005E5D5D5C5C5B5B5A5A5959585857575645
:103BE00056555555545453535252525151505050AA
:103BF0004F4F4F4E4E4D4D4D4C4C4C4B4B4B4A4AFC
:103C00004A4949494848484747474746464645453F
:103C10004544444444434343434242424241414178
:103C20009C46002B30D477002BD04FEA37071CB5C9
:103C300003B44FF010004FF01001BAF1000F06D09E
:103C4000BCF1000FDCBF40F0080040F008014FF06D
:103C500000000FBCBDE810400BF1010BBBF1010FE0
:103C600008BF5FEA170722BF12F1010211F101013B
:103C70004FF0004143F1000300F0004043EA000030
:103C80007047F9D35708D0E746EA06464FEA16468A
:103C900013F1400F1FDD13F1200FDFBF16430A465B
:103CA000002120335B42BED0C3F1200746EA06461E
:103CB0004FEA164602FA07F746EA070622FA03F227
:103CC000C3F1200701FA07F742EA070221FA03F1DC
:103CD0004FF00003A7E746EA020646EA06464FEA27
:103CE000164646EA0106BCBF46EA0646360C4FF0C9
:103CF00000034FF000024FF0000194E72DE9804CE3
:103D000070B49A46934691E8380007C831EA400CEF
:103D100048BF34EA430C03D5FFF7E6FDFFF780FF09
:103D2000F0BCBDE8008C2DE9804C70B49A469346F7
:103D300091E8380007C810F0804F08BF13F0804F9B
:103D400003D100F005F8FFF76BFFF0BCBDE8008C75
:103D500020F07F4723F07F4C80EA030000F0004012
:103D600007EB0C03A3F57C53A3F1FE0392F0000FC5
:103D700000F0B38095F0000F00F077802DE9014945
:103D80004FEA114021EA00484FEA144624EA064768
:103D900000FB06FC08FB06F607FB08F818EB0648D4
:103DA0004CEB164C00FB07F718EB07484CEB1740A1
:103DB0004FEA124B22EA0B4E4FEA154625EA064718
:103DC0000BFB06FC0EFB06F607FB0EFE1EEB064E7B
:103DD0004CEB164C0BFB07F71EEB074E4CEB174B4F
:103DE00018EB0B0840F1000018EB0E0B58EB000825
:103DF00040F100008F1A4FF000014FF000063CBF69
:103E0000C943661B14BFB5EB040C00213CBFC9437A
:103E1000F61B4FEA174427EA04454FEA1C472CEAF1
:103E2000074C04FB076205FB07F70CFB05F616EBD6
:103E3000074642EB174204FB0CFC16EB0C4642EB28
:103E40001C421BEB060658EB020241414EEA8E0E65
:103E500046EA9E0601D5BDE80189B619524141EBFB
:103E60000101A3F10103BDE801894FEA144524EAE9
:103E700005464FEA114721EA074C05FB07F406FB0C
:103E800007F70CFB06F111EB074144EB174405FB68
:103E90000CFC11EB0C4144EB1C444FEA124722EAA4
:103EA000074C05FB07F206FB07F70CFB06F616EBC3
:103EB000074642EB174205FB0CFC16EB0C4642EBA7
:103EC0001C456A1854F1000148BF7047B6195241A9
:103ED00041EB0101A3F10103704795F0000F37D0CA
:103EE0004FEA114221EA02464FEA144724EA074CFE
:103EF00002FB07F106FB07F70CFB06F414EB074483
:103F000041EB174102FB0CFC14EB0C4441EB1C4150
:103F10004FEA154725EA074C02FB07F506FB07F7B2
:103F20000CFB06F616EB074645EB174502FB0CFCAF
:103F300016EB0C4645EB1C42121951F1000148BF2B
:103F40007047B619524141EB0101A3F101037047DB
:103F50004FEA144524EA05464FEA114721EA074C87
:103F600005FB07F106FB07F70CFB06F212EB074215
:103F700041EB174105FB0CFC12EB0C4251EB1C41D1
:103F80004FF0000648BF7047921841EB0101A3F1C2
:103F900001037047490050EAC12018BF04204A0DB0
:103FA00018BF40F0010040F2FF72B2EB515F08BF52
:103FB00040F00200012808BF0520704730380A2869
:103FC00001D20120704700207047000010B5002981
:103FD0000AD00878002807D005487844FDF7C8F9CA
:103FE000002801D0002010BD0248784410BD000018
:103FF000F2060000EA06000010B500290AD0087891
:10400000002807D005487844FDF7B2F9002801D010
:10401000002010BD0248784410BD0000E2060000F8
:10402000DA0600000808A0F500114FEA31017047D8
:1040300043004FEAD30C4FEA3C0C43401FBF4007FC
:104040000CF1605113F0FE4F70471CF0006F03D16C
:104050000CF00041002070470CF0004343EA507020
:1040600040EACC0010B500F038FA00BF0000009222
:104070004FEA0001FFF7D6BF4FF00041A1F5002144
:104080004FF00000704710B500F0F6F80CBF0120AB
:10409000002010BD10B500F0EFF814BF0120002083
:1040A00010BD10B500F030F98CBF0120002010BD0C
:1040B00010B500F029F92CBF0120002010BD10B56B
:1040C00000F056F994BF0120002010BD10B500F09B
:1040D0004FF934BF0120002010BD401058BFC0F17F
:1040E0004040491058BFC1F140418142EFF3008088
:1040F000704700004FF47F0C1CEAD0121EBF1CEA70
:10410000D11392EA0C0F93EA0C0F00F0858090EA2D
:10411000010F48BF42F4807240F4000C41F40000EB
:104120002CF07F4120F07F4000B5A2EB03028142DA
:104130000FF2081CACEB504E9EF800E0C0F10000FE
:104140004FEA4E0E00FB0EFC38BF49004FEA2C1C14
:104150000CFB0EF34FEACE1E0EEB635E4FEA112C02
:104160000EFB0CFC4FEAC1214FEA1C5300FB03116C
:1041700002F5FA024FEA112C0EFB0CFC4FEA01315A
:104180004FEADC4C00FB0C1142EB2242C14228BF3B
:1041900009184CEB03335DF804EB10EB410143EBE2
:1041A000C250B2F57C0F38BF704729D512F0F00F1E
:1041B0001CBF00F1C04000F00040704700818283C6
:1041C0008485868788898B8C8D8E8F919293959626
:1041D00097999A9C9D9FA0A2A3A5A7A8AAACAEB0B0
:1041E000B2B3B5B7B9BCBEC0C2C5C7C9CCCED1D4B5
:1041F000D7D9DCDFE2E6E9ECF0F3F7FAFE000000E5
:104200004FEA400C0CF1807CBCF17E4F28BF704718
:10421000B0F1C04000F0A7B90CEAD11390EA010F49
:1042200048BF42F48072624538BF634507D213F439
:104230007F0F16D080EA010000F00040704710B5F3
:1042400000F04BF9097EFC3E00F005B880EA010061
:1042500000F00040704780EA010000F0004000F0EC
:1042600082B912F47F0F04BF0248704780EA010050
:1042700000F079B90000C07F50EA010C00F1138012
:104280001CF5000F58BFBCF5000F01D488427047E1
:1042900007D710F5000F58BF11F5000F15D488424D
:1042A0007047894270471CF5000F04D5BCF5000F1C
:1042B000F7D5814270474FF0807C1CEB400F38BF30
:1042C0001CEB410F01D28142704710B500F005F997
:1042D000922449004FF000504FF08051FFF7FDBE8F
:1042E000B0FA80F310FA03F2C3F19D030AD0D905A6
:1042F00001EB1220530638BF704700F1010008BFE0
:1043000020F001007047000050EA010C00F113801A
:104310001CF5000F58BFBCF5000F01D48842704750
:1043200007D710F5000F58BF11F5000F15D48842BC
:104330007047894270471CF5000F04D5BCF5000F8B
:10434000F7D5814270474FF0807C1CEB400F38BF9F
:104350001CEB410F01D28142704710B500F0BDF84F
:10436000922449004FF080504FF00051FFF7B5BE46
:1043700050EA010C00F113801CF5000F58BFBCF58A
:10438000000F01D48842704707D710F5000F58BFBF
:1043900011F5000F15D488427047894270471CF50B
:1043A000000F04D5BCF5000FF7D5814270474FF0E0
:1043B000807C1CEB400F38BF1CEB410F01D28142C7
:1043C000704710B500F089F8922449004FF0005072
:1043D0004FF08051FFF781BE4FF47F0C1CEAD012E2
:1043E0001EBF1CEAD11392EA0C0F93EA0C0F00F0E7
:1043F000478090EA010F48BF42F480724FF0004CB2
:104400004CEA00204CEA012102EB0302A0FB01135D
:10441000A2F50002002918BF43F001035B0028BF8A
:104420004FEA330342EB22425FEA132C4CEBC250BB
:104430002EBFBCEB436FB2F57C0F70474FEA036CA5
:10444000BCF1004F08BF20F00100B2F57C0F38BF6F
:1044500070470BD582F0FF0212F5803FC8BF70474E
:1044600000F1C040D8BF00F00040704700F5000CDC
:104470005FEA4C0C48BF7047B0F1C04000F073B821
:104480000CEAD11390EA010F48BF42F480726245F2
:1044900038BF634504D280EA010000F00040704755
:1044A00010B500F01AF800BF8900013E00F007B80F
:1044B00000F009B85FEA410C5FEA1C6C08D080EAA2
:1044C000010000F050B85FEA400C5FEA1C6CF6D1C6
:1044D0004FF00040A0F5800070470EF1020E2EF064
:1044E000030E5EF8044B244204D44FEA4102B2F1B9
:1044F0007F4F11D84FEA4003B3F17F4F0CD80ED154
:104500004FEAD07C0CEB4C0C0CF1020CB2F17F4F5B
:1045100008BF4CEBD17C04E04FF0080C01E04FEAFF
:10452000D17C0CEB4C0324FA03F404F00704B4F13F
:10453000040C06D20EEB840CBDE810404CF0010CCC
:104540006047DFE80CF0070802024FF00040A0F5DA
:10455000800010BD0846420018BFD2F1807288BFAB
:1045600000F0004010BDFF2141EAD050C005704767
:10457000FCF708BBFCF73CBC00000000000000009A
:104580003031323334353637383941424344454689
:104590004030580030313233343536373839616283
:1045A0006364656640307800040000080000000085
:1045B0000000000200010000103031323334353683
:1045C0003738396162636465667870003031323340
:1045D0003435363738394142434445465850000057
:1045E00002400000000000A00000000005400000A4
:1045F000000000C8000000000C4000000000409CCB
:1046000000000000194000000020BCBE00000000B7
:1046100034400000BFC91B8E00000004B5400000FC
:10462000504BCFD06607E2CF010000006C41000084
:104630003E8251AADFEEA73401000000D9420000FB
:10464000DCB5A0E23A301F97FFFFFFFFB445000042
:10465000FD25A0C8E9A3C14FFFFFFFFFFF3F0000FA
:104660000000008000000000FF3F0000000000800C
:104670000000000000000000000000000102030430
:1046800006070809000000000102030446495245DC
:1046900020414C41524D210D0A0054656D703A2065
:1046A000252E316620430D0A00000000F84700085F
:1046B0000000002010000000280100080848000841
:1046C00010000020D8060000440100081C00000073
:1046D00043000000F8FFFFFF0C0000000E00000088
:1046E0000F0000002E000000100100004300000039
:1046F000F8FFFFFF00404040404040404040414103
:1047000041414140404040404040404040404040A6
:104710004040404040050202020202020202020240
:10472000020202020220202020202020202020023D
:1047300002020202020290909090909010101010CD
:104740001010101010101010101010101010101069
:1047500002020202020288888888888808080808FD
:1047600008080808080808080808080808080808C9
:1047700002020202400000000000000000000000F1
:104780000000000000000000000000000000000029
:104790000000000000000000000000000000000019
:1047A0000000000000000000000000000000000009
:1047B00000000000000000000000000000000000F9
:1047C00000000000000000000000000000000000E9
:1047D00000000000000000000000000000000000D9
:1047E00000000000000000000000000000000000C9
:1047F00000000000000000000024F40001000000A0
:084800001000000000000000A0
:04000005080000ED02
:00000001FF
