:020000040800F2
:10000000C006002089010008091D0008891B00089E
:10001000051D000891020008BD2300080000000033
:10002000000000000000000000000000B91D0008F2
:100030009502000800000000791D0008111E00084C
:10004000A3010008A3010008A3010008A301000800
:10005000A3010008A3010008A3010008A3010008F0
:10006000A3010008A3010008A3010008A3010008E0
:10007000A3010008A3010008A3010008A3010008D0
:10008000A3010008A3010008A3010008A3010008C0
:10009000A3010008A3010008A3010008A3010008B0
:1000A000A3010008891E0008A3010008791E0008AA
:1000B000A3010008A301000800000000A30100083C
:1000C000A30100080000000000000000A3010008D8
:1000D00000000000A3010008A301000800000000C8
:1000E000A3010008A3010008A301000800F002F822
:1000F00000F03AF80AA090E8000C82448344AAF188
:100100000107DA4501D100F02FF8AFF2090EBAE885
:100110000F0013F0010F18BFFB1A43F0010318473B
:10012000B8230000D8230000103A24BF78C878C153
:10013000FAD8520724BF30C830C144BF04680C60ED
:10014000704700000023002400250026103A28BF35
:1001500078C1FBD8520728BF30C148BF0B60704739
:100160001FB51FBD10B510BD00F058F81146FFF7C0
:10017000F7FF02F085F900F076F803B4FFF7F2FF1D
:1001800003BC00F07DF8000009488047094800479B
:10019000FEE7FEE7FEE7FEE7FEE7FEE7FEE7FEE737
:1001A000FEE7FEE704480549054A064B7047000094
:1001B000751E0008ED000008C0000020C0060020E9
:1001C000C0020020C00200204FF0000200B513461C
:1001D00094469646203922BFA0E80C50A0E80C5067
:1001E000B1F12001BFF4F7AF090728BFA0E80C5018
:1001F00048BF0CC05DF804EB890028BF40F8042B11
:1002000008BF704748BF20F8022B11F0804F18BF7D
:1002100000F8012B7047704770477047754600F033
:100220002BF8AE4605006946534620F00700854688
:1002300018B020B5FFF7B6FFBDE820404FF000062C
:100240004FF000074FF000084FF0000BAC46ACE851
:10025000C009ACE8C009ACE8C009ACE8C00921F0AD
:1002600007018D46704710B50446AFF30080204665
:10027000BDE81040FFF781BF004870471000002024
:1002800001491820ABBEFEE72600020070470000BF
:10029000FFE7FEE77047000081B0EFF3108072B611
:1002A0000090FFE7FEE700008FB00E900D91002058
:1002B0000C900890FFE70D9800680C99C840002842
:1002C00000F07181FFE70C99012088400B900D9898
:1002D00000680B9908400A900A980B99884240F0F0
:1002E0005E81FFE70D9840680490002851D0FFE739
:1002F000049801283AD0FFE7049802283FD0FFE78E
:10030000049803285FD0FFE70498112832D0FFE754
:100310000498122838D0FFE704980021C1F2110197
:10032000884236D0FFE704980021C1F212018842CA
:100330002FD0FFE704980021C1F22101884228D084
:10034000FFE704980021C1F22201884221D0FFE793
:1003500004980021C1F2310188421AD0FFE70498C5
:100360000021C1F23201884213D02FE00D98C068FD
:1003700008902CE00D98C0680430089027E00D9894
:10038000C0680830089022E00D98C0680C300890D2
:100390001DE00D98806818B9FFE70420089011E06F
:1003A0000D988068012806D1FFE7082008900B9877
:1003B0000E99086105E0082008900B980E99486195
:1003C000FFE7FFE703E00020089000E0FFE70A985E
:1003D000FF2803D8FFE70E98039003E00E9804303F
:1003E0000390FFE7039807900A98FF2804D8FFE7D7
:1003F0000C988000029006E00C996FF01F0000EB53
:1004000081000290FFE70298069007980068069A1C
:100410000F2191408843089991400843079908604B
:100420000D98C079C006002840F1B880FFE7FFE7CB
:1004300041F21800C4F20200016841F001010160BC
:10044000006800F0010005900598FFE70C9820F087
:1004500003000821C4F20101405809900C9800F0F3
:10046000030081000F2000FA01F1099888430990E8
:100470000E9840F60001C4F20101884203D1FFE763
:100480000020019018E00E9840F60041C4F20101EE
:10049000884203D1FFE7012000900AE00E9941F263
:1004A0000002C4F201020320914208BF0220009022
:1004B000FFE700980190FFE701980C9901F0030114
:1004C000890000FA01F109980843099009980C99EC
:1004D00021F003010822C4F2010288500D988079AE
:1004E000C006002809D5FFE70A9A40F20841C4F285
:1004F000010108681043086008E00A9A40F20841C8
:10050000C4F20101086890430860FFE70D98807904
:100510008006002809D5FFE70A9A40F20C41C4F290
:10052000010108681043086008E00A9A40F20C4193
:10053000C4F20101086890430860FFE70D988079D4
:100540008007002809D5FFE70A9A40F20441C4F267
:10055000010108681043086008E00A9A40F204416B
:10056000C4F20101086890430860FFE70D988079A4
:10057000C00748B1FFE70A9A40F20041C4F2010106
:1005800008681043086008E00A9A40F20041C4F28B
:100590000101086890430860FFE7FFE7FFE70C9858
:1005A00001300C9087E60FB07047000083B00290D6
:1005B000ADF806100298C0680090009ABDF80600D9
:1005C00002EA0001904340EA01400299086103B049
:1005D0007047000082B00190ADF802108DF8012044
:1005E0009DF8010028B1FFE7BDF8020001990861FC
:1005F00005E0BDF80200000401990861FFE702B0C0
:100600007047000040F2B800C2F200000068704776
:1006100040F20400C2F20000027840F2B801C2F2D7
:1006200000010868104408607047000080B542F27D
:100630000001C4F20201086840F0100008600320C5
:1006400000F086F80F2000F005F800F03BF80020DD
:1006500080BD000080B582B0009040F20000C2F280
:100660000000006840F20401C2F200010A784FF471
:100670007A71B1FBF2F1B0FBF1F000F039FD20B17D
:10068000FFE701208DF8070018E000980F280DD82B
:10069000FFE700994FF0FF30002200F03FF800988C
:1006A00040F20801C2F20001086003E001208DF869
:1006B000070003E000208DF80700FFE79DF8070022
:1006C00002B080BD82B0FFE741F21800C4F2020020
:1006D000016841F001010160006800F00100019033
:1006E0000198FFE7FFE741F21C00C4F20200016835
:1006F00041F080510160006800F080500090009847
:10070000FFE702B07047000080B582B08DF80700A7
:100710009DF9070001F054FE02B080BD80B586B09F
:100720008DF81700049103920020029001F060FE02
:1007300002909DF91700019002980499039A01F024
:10074000E5FA0146019801F05BFE06B080BD0000AD
:1007500080B582B00190019801F074FE02B080BDB6
:1007600080B584B002900191029820B9FFE7012082
:100770008DF80F001BE1019842F20001C4F2020162
:10078000096801F00701884216D9FFE742F200002C
:10079000C4F20200016821F00701019A11430160CF
:1007A000006800F007000199884204D0FFE70120AB
:1007B0008DF80F00FBE0FFE7029800788007002823
:1007C0002AD5FFE7029800784007002809D5FFE7FF
:1007D00041F20401C4F20201086840F4E0600860DC
:1007E000FFE7029800780007002809D5FFE741F2EB
:1007F0000401C4F20201086840F460500860FFE799
:1008000041F20401C4F20201086820F0F000029AEB
:10081000926810430860FFE702980078C00700283C
:1008200060D0FFE70298406801280ED1FFE741F24F
:100830000000C4F2020000688003002804D4FFE72F
:1008400001208DF80F00B2E021E0029840680228F4
:100850000ED1FFE741F20000C4F2020000688001FF
:10086000002804D4FFE701208DF80F009FE00DE081
:1008700041F20000C4F2020000688007002804D49E
:10088000FFE701208DF80F0091E0FFE7FFE741F25D
:100890000401C4F20201086820F00300029A5268C1
:1008A00010430860FFF7AEFE0090FFE741F204003E
:1008B000C4F20200006800F00C0002994968B0EB35
:1008C000810F0ED0FFE7FFF79DFE0099401A41F21D
:1008D0008931884204D3FFE703208DF80F0066E0DA
:1008E000E4E7FFE7019842F20001C4F2020109685F
:1008F00001F00701884216D2FFE742F20000C4F27D
:100900000200016821F00701019A114301600068AB
:1009100000F007000199884204D0FFE701208DF81C
:100920000F0044E0FFE702980078400700280CD54C
:10093000FFE741F20401C4F20201086820F4E0601C
:10094000029AD26810430860FFE702980078000717
:1009500000280DD5FFE741F20401C4F20201086846
:1009600020F46050029A126940EAC2000860FFE772
:1009700000F022F841F20401C4F202010968C9B290
:100980000A0942F2B441C0F60001895CC84040F255
:100990000001C2F20001086040F20800C2F200004B
:1009A0000068FFF757FE00208DF80F00FFE79DF865
:1009B0000F0004B080BD000086B0002005900490B8
:1009C00003900290019041F20400C4F2020000681A
:1009D0000590059800F00C000146009100283FD0DA
:1009E000FFE70098042804D0FFE70098082806D005
:1009F00037E041F20020C0F27A00019037E005981C
:100A0000C0F3834142F2C440C0F60000405C029053
:100A10009DF81600C007C0B1FFE741F20400C4F220
:100A200002000068C0F3404142F2D440C0F600002A
:100A3000405C0490029841F20021C0F27A014843E0
:100A40000499B0FBF1F0039007E0029840F6001122
:100A5000C0F23D0148430390FFE70398019006E090
:100A6000FFE741F20020C0F27A000190FFE7019811
:100A700006B0704780B586B00490049820B9FFE7AF
:100A800001208DF817002EE304980078C007002895
:100A900000F0AE80FFE741F20400C4F202000068FB
:100AA00000F00C00042813D0FFE741F20400C4F268
:100AB0000200006800F00C0008281BD1FFE741F29B
:100AC0000400C4F202000068C003002812D5FFE74A
:100AD00041F20000C4F2020000688003002808D53B
:100AE000FFE70498406820B9FFE701208DF8170060
:100AF000F9E27CE0FFE704984068B0F5803F09D157
:100B0000FFE741F20001C4F20201086840F48030BE
:100B1000086032E00498406868B9FFE741F20001DC
:100B2000C4F20201086820F480300860086820F4EC
:100B30008020086020E004984068B0F5A02F0DD117
:100B4000FFE741F20001C4F20201086840F480208E
:100B50000860086840F4803008600CE041F2000151
:100B6000C4F20201086820F480300860086820F4AC
:100B700080200860FFE7FFE7FFE7FFE70498406891
:100B8000D0B1FFE7FFF73EFD0390FFE741F2000021
:100B9000C4F202000068800300280CD4FFE7FFF7CE
:100BA00031FD0399401A652804D3FFE703208DF82F
:100BB000170098E2EAE719E0FFF724FD0390FFE74A
:100BC00041F20000C4F202000068800300280CD546
:100BD000FFE7FFF717FD0399401A652804D3FFE7E5
:100BE00003208DF817007EE2EAE7FFE7FFE7FFE763
:100BF000049800788007002840F18D80FFE741F2DB
:100C00000400C4F20200006810F00C0F13D0FFE7DC
:100C100041F20400C4F20200006800F00C00082851
:100C200029D1FFE741F20400C4F202000068C003CA
:100C3000002820D4FFE741F20000C4F2020000685F
:100C40008007002809D5FFE704980069012804D02F
:100C5000FFE701208DF8170045E241F20001C4F2E0
:100C60000201086820F0F800049A526940EAC200C4
:100C70000860FFE74EE00498006958B3FFE70021E1
:100C8000C4F2422101200860FFF7BCFC0390FFE79B
:100C900041F20000C4F202000068800700280CD472
:100CA000FFE7FFF7AFFC0399401A032804D3FFE7DF
:100CB00003208DF8170016E2EAE741F20001C4F2C2
:100CC0000201086820F0F800049A526940EAC20064
:100CD00008601EE00021C4F2422100200860FFF7F6
:100CE00091FC0390FFE741F20000C4F202000068AB
:100CF000800700280CD5FFE7FFF784FC0399401A12
:100D0000032804D3FFE703208DF81700EBE1EAE79F
:100D1000FFE7FFE7FFE7049800780007002848D5C1
:100D2000FFE70498806918B3FFE740F28041C4F2FE
:100D3000422101200860FFF765FC0390FFE741F2C4
:100D40002400C4F202000068800700280CD4FFE7EA
:100D5000FFF758FC0399401A032804D3FFE7032048
:100D60008DF81700BFE1EAE7012001F007F81FE066
:100D700040F28041C4F2422100200860FFF742FCAB
:100D80000390FFE741F22400C4F2020000688007EC
:100D900000280CD5FFE7FFF735FC0399401A03281C
:100DA00004D3FFE703208DF817009CE1EAE7FFE793
:100DB000FFE7049800784007002840F1D880FFE75B
:100DC00000208DF8070041F21C00C4F20200006808
:100DD000C000002813D4FFE7FFE741F21C00C4F273
:100DE0000200016841F080510160006800F080500D
:100DF00000900098FFE701208DF80700FFE747F219
:100E00000000C4F200000068C005002822D4FFE7FB
:100E100047F20001C4F20001086840F480700860E5
:100E2000FFF7F0FB0390FFE747F20000C4F2000079
:100E30000068C00500280CD4FFE7FFF7E3FB039927
:100E4000401A652804D3FFE703208DF817004AE114
:100E5000EAE7FFE7FFE70498C068012809D1FFE748
:100E600041F22001C4F20201086840F0010008606C
:100E700031E00498C06868B9FFE741F22001C4F28C
:100E80000201086820F001000860086820F00400F2
:100E900008601FE00498C06805280DD1FFE741F203
:100EA0002001C4F20201086840F0040008600868EC
:100EB00040F0010008600CE041F22001C4F20201A0
:100EC000086820F001000860086820F0040008604D
:100ED000FFE7FFE7FFE7FFE70498C068E0B1FFE73F
:100EE000FFF790FB0390FFE741F22000C4F20200FD
:100EF0000068800700280ED4FFE7FFF783FB039903
:100F0000401A41F28931884204D3FFE703208DF86B
:100F10001700E8E0E8E71BE0FFF774FB0390FFE74A
:100F200041F22000C4F202000068800700280ED5BC
:100F3000FFE7FFF767FB0399401A41F289318842C6
:100F400004D3FFE703208DF81700CCE0E8E7FFE7C4
:100F50009DF80700012809D1FFE741F21C01C4F206
:100F60000201086820F080500860FFE7FFE704985E
:100F7000C069002800F0B380FFE741F20400C4F22A
:100F80000200006800F00C00082800F08280FFE7F3
:100F90000498C06902285CD1FFE76021C4F24221B5
:100FA00000200860FFF72EFB0390FFE741F20000EE
:100FB000C4F202000068800100280CD5FFE7FFF7AB
:100FC00021FB0399401A032804D3FFE703208DF87F
:100FD000170088E0EAE70498006AB0F5803F0CD17A
:100FE000FFE741F20401C4F20201086820F4003076
:100FF000049A926810430860FFE741F20401C4F2CA
:101000000201086820F47410049B1A6A5B6A1A4390
:10101000104308606021C4F2422101200860FFF7FC
:10102000F1FA0390FFE741F20000C4F20200006809
:10103000800100280CD4FFE7FFF7E4FA0399401A77
:10104000032804D3FFE703208DF817004BE0EAE7FD
:101050001EE06021C4F2422100200860FFF7D2FAAE
:101060000390FFE741F20000C4F202000068800133
:1010700000280CD5FFE7FFF7C5FA0399401A0328AB
:1010800004D3FFE703208DF817002CE0EAE7FFE721
:1010900024E00498C069012804D1FFE701208DF8FD
:1010A000170020E041F20400C4F202000068029040
:1010B000029800F480300499096A884208D1FFE759
:1010C000029800F470100499496A884204D0FFE73E
:1010D00001208DF8170006E0FFE7FFE7FFE700209B
:1010E0008DF81700FFE79DF8170006B080BD0000DF
:1010F00080B582B00190019800F060FE02B080BD22
:1011000081B0009001B0704781B0009001B070478D
:1011100084B00290019100200090FFE7029890F8BF
:101120003C00012804D1FFE702208DF80F0044E0C5
:101130000299012081F83C00FFE7FFE7009820F0CA
:10114000FF000199C96808430090009820F440709E
:101150000199896808430090009820F48060019903
:10116000496808430090009820F4006001990968DC
:1011700008430090009820F48050019909690843C1
:101180000090009820F400500199496908430090AC
:10119000009820F480400199C969084300900098A4
:1011A000029909684864FFE70299002081F83C0031
:1011B000FFE700208DF80F00FFE79DF80F0004B057
:1011C0007047000085B003900291FFE7039890F804
:1011D0003C00012804D1FFE702208DF8130052E003
:1011E0000399012081F83C00FFE7FFE70399022003
:1011F00081F83D00039800684068019003980068FA
:1012000080680090019820F07000019002980168B9
:101210000198084301900198039909684860039870
:10122000006842F60041C4F2010188420FD0FFE796
:1012300003980068B0F1804F09D0FFE70398006879
:1012400040F20041C4F2000188420ED1FFE700984D
:1012500020F08000009002984168009808430090B8
:101260000098039909688860FFE70399012081F8D5
:101270003D00FFE70399002081F83C00FFE70020D4
:101280008DF81300FFE79DF8130005B070470000CC
:1012900080B582B00090009820B9FFE701208DF85A
:1012A00007003FE0009890F83D0040B9FFE7009943
:1012B000002081F83C00009800F038F8FFE7009922
:1012C000022081F83D00009951F8040B00F0E4FD84
:1012D0000099012081F84600FFE70099012081F87C
:1012E0003E00009981F83F00009981F84000009984
:1012F00081F84100FFE7FFE70099012081F84200F3
:10130000009981F84300009981F84400009981F820
:101310004500FFE70099012081F83D0000208DF88D
:101320000700FFE79DF8070002B080BD80B586B0DA
:1013300005900598006842F60041C4F20101884218
:1013400023D1FFE7FFE741F21800C4F20200016871
:1013500041F400610160006800F4006004900498AA
:10136000FFE719200190002202921146FFF7D6F9FB
:101370000198FFF7C9F9029A1B2003901146FFF765
:10138000CDF90398FFF7C0F9FFE706B080BD000074
:1013900083B00190019890F83D00012804D0FFE748
:1013A00001208DF80B003EE00199022081F83D00FC
:1013B00001980168C86840F00100C86001980068A1
:1013C00042F60041C4F2010188420FD0FFE70198C4
:1013D0000068B0F1804F09D0FFE70198006840F243
:1013E0000041C4F20001884212D1FFE70198006871
:1013F000806800F0070000900098062807D0FFE7FB
:1014000001980168086840F001000860FFE706E005
:1014100001980168086840F001000860FFE70020BB
:101420008DF80B00FFE79DF80B0003B0704700003C
:1014300080B586B00490039100208DF80B00FFE783
:10144000049890F83C00012804D1FFE702208DF8B1
:101450001700ABE00499012081F83C00FFE7FFE7AB
:101460000499022081F83D0004980068806801908A
:10147000019820F077000190019820F47F400190BE
:101480000198049909688860039800680090002812
:1014900072D0FFE7009810286ED0FFE70098202850
:1014A0006AD0FFE70098302866D0FFE70098402810
:1014B00055D0FFE70098502837D0FFE70098602804
:1014C00040D0FFE7009870280BD0FFE70098B0F5F8
:1014D000805F05D0FFE70098B0F5005F16D052E0BE
:1014E00055E004980068039B5A689968DB6800F02F
:1014F00057FD0498006880680190019840F07700DB
:101500000190019804990968886040E00498006897
:10151000039B5A689968DB6800F042FD04980168F3
:10152000886840F48040886031E004980068039A3D
:101530005168D26800F0F0FE04980068502100F075
:1015400049FD24E004980068039A5168D26800F0CD
:101550000BFF04980068602100F03CFD17E0049840
:101560000068039A5168D26800F0D6FE04980068BB
:10157000402100F02FFD0AE00498006803990968F3
:1015800000F028FD03E001208DF80B00FFE704992F
:10159000012081F83D00FFE70499002081F83C001C
:1015A000FFE79DF80B008DF81700FFE79DF8170087
:1015B00006B080BD81B0009001B0704780B582B0A8
:1015C000019001980068006900F002010020B0EB72
:1015D000510F28D0FFE701980068C06800F00201B1
:1015E0000020B0EB510F1DD0FFE7019801686FF0AC
:1015F000020008610199012008770198006880695C
:10160000800720B1FFE70198FFF7D4FF06E00198BB
:1016100000F064F9019800F0A1FAFFE701990020B9
:101620000877FFE7FFE701980068006900F0040110
:101630000020B0EB910F29D0FFE701980068C06847
:1016400000F004010020B0EB910F1ED0FFE70198DD
:1016500001686FF004000861019902200877019881
:101660000068806910F4407F04D0FFE70198FFF71D
:10167000A1FF06E0019800F031F9019800F06EFA40
:10168000FFE7019900200877FFE7FFE7019800686E
:10169000006900F008010020B0EBD10F28D0FFE76F
:1016A00001980068C06800F008010020B0EBD10F7D
:1016B0001DD0FFE7019801686FF0080008610199EB
:1016C0000420087701980068C069800720B1FFE70F
:1016D0000198FFF76FFF06E0019800F0FFF801980E
:1016E00000F03CFAFFE7019900200877FFE7FFE7E9
:1016F00001980068006900F010010020B0EB111F94
:1017000029D0FFE701980068C06800F010010020B0
:10171000B0EB111F1ED0FFE7019801686FF01000B9
:10172000086101990820087701980068C06910F4E1
:10173000407F04D0FFE70198FFF73CFF06E00198E7
:1017400000F0CCF8019800F009FAFFE701990020B9
:101750000877FFE7FFE7019800680069C00780B1DC
:10176000FFE701980068C068C00748B1FFE701982B
:1017700001686FF001000861019800F0F3F9FFE7DC
:10178000FFE7019800680069C1B20020B0EBD11FEB
:1017900013D0FFE701980068C068C1B20020B0EB29
:1017A000D11F09D0FFE7019801686FF08000086140
:1017B0000198FFF7A5FCFFE7FFE7019800680069C3
:1017C00000F040010020B0EB911F14D0FFE701981A
:1017D0000068C06800F040010020B0EB911F09D004
:1017E000FFE7019801686FF040000861019800F080
:1017F000C7F9FFE7FFE701980068006900F02001E2
:101800000020B0EB511F14D0FFE701980068C068BA
:1018100000F020010020B0EB511F09D0FFE7019834
:1018200001686FF0200008610198FFF76DFCFFE789
:10183000FFE702B080BD000080B586B00490039140
:10184000029200208DF80700FFE7049890F83C0012
:10185000012804D1FFE702208DF817003AE004992F
:10186000012081F83C00FFE7FFE7029800900C2878
:1018700021D80099DFE801F0071F1F1F0D1F1F1F50
:10188000131F1F1F190004980068039900F0B8FB8C
:1018900015E004980068039900F01AFC0FE0049822
:1018A0000068039900F080FC09E00498006803993F
:1018B00000F0E6FC03E001208DF80700FFE7FFE7FA
:1018C0000499002081F83C00FFE79DF807008DF89F
:1018D0001700FFE79DF8170006B080BD80B582B005
:1018E000019040F60000C4F201004FF40061FEF7E1
:1018F0005DFE02B080BD000080B582B0009000980F
:1019000020B9FFE701208DF807003FE0009890F82C
:101910003D0040B9FFE70099002081F83C000098A5
:1019200000F038F8FFE70099022081F83D000099A7
:1019300051F8040B00F0B0FA0099012081F846003C
:10194000FFE70099012081F83E00009981F83F00EF
:10195000009981F84000009981F84100FFE7FFE716
:101960000099012081F84200009981F84300009914
:1019700081F84400009981F84500FFE700990120B3
:1019800081F83D0000208DF80700FFE79DF8070073
:1019900002B080BD81B0009001B0704780B58CB0BE
:1019A0000A90099100208DF82300099828B9FFE7D3
:1019B0000A9890F83E0006901CE00998042805D18A
:1019C000FFE70A9890F83F00059010E00998082872
:1019D00005D1FFE70A9890F84000049004E00A98C7
:1019E00090F841000490FFE704980590FFE7059800
:1019F0000690FFE70698012804D0FFE701208DF844
:101A00002F00A6E0099828B9FFE70A99022081F87B
:101A10003E001EE00998042806D1FFE70A9902203B
:101A200081F83F00039012E00998082806D1FFE7EB
:101A30000A99022081F84000029005E00A990220EC
:101A400081F841000290FFE702980390FFE70398B6
:101A5000FFE7099801900C2825D80199DFE801F0EB
:101A6000072323230E232323152323231C000A9853
:101A70000168C86840F00200C86018E00A98016870
:101A8000C86840F00400C86011E00A980168C8689E
:101A900040F00800C8600AE00A980168C86840F091
:101AA0001000C86003E001208DF82300FFE79DF8D7
:101AB0002300002848D1FFE70A980068099901220D
:101AC00000F052FA0A98006842F60041C4F201019F
:101AD000884207D1FFE70A980168486C40F400404B
:101AE0004864FFE70A98006842F60041C4F2010129
:101AF00088420FD0FFE70A980068B0F1804F09D004
:101B0000FFE70A98006840F20041C4F200018842F1
:101B100012D1FFE70A980068806800F0070007907C
:101B20000798062807D0FFE70A980168086840F080
:101B300001000860FFE706E00A980168086840F0C5
:101B400001000860FFE7FFE79DF823008DF82F00F4
:101B5000FFE79DF82F000CB080BD000081B0009021
:101B600001B0704780B582B0019040F60000C4F229
:101B700001004FF48061FEF719FD02B080BD000046
:101B800081B0009001B07047FFE7FEE780B588B0F4
:101B900000200790069005900490FFE741F218009E
:101BA000C4F20200016841F004010160006800F025
:101BB000040003900398FFE740F60000C4F2010020
:101BC00002904FF44061009100220192FEF702FD65
:101BD000009A01990298049201220592069102212D
:101BE000079104A9FEF760FB08B080BD80B598B0EE
:101BF0000021019117911691159114911391129151
:101C0000119110910F910E910D910C910B910A91E0
:101C1000099108910791069105910491039140F271
:101C20007000C2F20000029042F60042C4F20102CB
:101C300002607C22426081604FF6FF12C260016147
:101C400041618161FFF724FB18B1FFE7FEF724FB38
:101C5000FFE74FF48050149040F27000C2F2000091
:101C600014A9FFF7E5FB18B1FFE7FEF715FBFFE747
:101C700040F27000C2F20000FFF73EFE18B1FFE72D
:101C8000FEF70AFBFFE700201290139040F270006D
:101C9000C2F2000012A9FFF795FA18B1FFE7FEF7AC
:101CA000FBFAFFE730200B9047F6FF400C90002234
:101CB0000D920E920F921092119240F27000C2F2A9
:101CC00000000BA9FFF7B8FD18B1FFE7FEF7E4FA33
:101CD000FFE70020039004900590069007904FF4D2
:101CE000005108910A9040F27000C2F2000003A96E
:101CF000FFF70EFA18B1FFE7FEF7CEFAFFE718B0CC
:101D000080BD0000FFE7FEE7FFE7FEE788B0079031
:101D100006910592079800F0070004900498C0F11E
:101D20000700052803D3FFE70420019004E004988E
:101D3000C0F107000190FFE7019803900498043078
:101D4000062803D8FFE70020009003E0049803383A
:101D50000090FFE70098029006980399012202FA8A
:101D600001F101390840029B984005999A40013AD7
:101D70001140084308B070477047000082B00190DE
:101D8000019840F20001C2F200010968C90844F656
:101D9000D352C1F26202A1FB02218909484300909B
:101DA000FFE700BFFFE70098411E00910028F8D12F
:101DB000FFE702B0704700007047000080B582B0B6
:101DC000009000980138B0F1807F03D3FFE7012035
:101DD000019019E0009801384EF21401CEF2000192
:101DE00008604FF0FF300F2100F00AFB4EF218019F
:101DF000CEF20001002008604EF21002CEF2000286
:101E0000072111600190FFE7019802B080BD00003A
:101E100080B5FEF7FDFB80BD80B590B006A80090B0
:101E20002821FEF7D1F90098002105910491039132
:101E3000029101910222069201220A9210220B9233
:101E40000D91FEF717FE18B1FFE7FEF725FAFFE741
:101E50000F2001900021029103910491059101A8A6
:101E6000FEF77EFC18B1FFE7FEF716FAFFE710B0A9
:101E700080BD00007047000080B540F27000C2F2E3
:101E80000000FFF79BFB80BD80B540F27000C2F2FE
:101E90000000FFF793FB80BD83B002900191029890
:101EA00000680090029842F60041C4F201018842A5
:101EB0000DD0FFE70298B0F1804F08D0FFE70298FD
:101EC00040F20041C4F2000188420AD1FFE70098C5
:101ED00020F070000090019841680098084300903D
:101EE000FFE7029842F60041C4F2010188420DD09A
:101EF000FFE70298B0F1804F08D0FFE7029840F268
:101F00000041C4F2000188420AD1FFE7009820F4A2
:101F1000407000900198C168009808430090FFE766
:101F2000009820F0800001994969084300900098CA
:101F300002990860019880680299C8620198006857
:101F400002998862029842F60041C4F20101884277
:101F500005D1FFE70198006902990863FFE702993C
:101F60000120486103B0704784B003900291019250
:101F7000029800F01F01012088400090009A039908
:101F8000086A904308620198029901F01F0100FA63
:101F900001F20399086A1043086204B07047000018
:101FA00085B0049003910292019304988068009098
:101FB000009820F47F40009003980299019A41EA2A
:101FC000022101430098084300900098049988601A
:101FD00005B0704783B0029001910298806800902C
:101FE000009820F07000009001980099084340F09C
:101FF0000700009000980299886003B070470000C5
:1020000085B0049003910498006A01900499086ACD
:1020100020F00100086204984068009004988069EC
:102020000290029820F070000290029820F00300C5
:10203000029003980168029808430290019820F0EA
:102040000200019003988168019808430190049868
:1020500042F60041C4F2010188420ED1FFE7019827
:1020600020F0080001900398C1680198084301908E
:10207000019820F004000190FFE7049842F6004127
:10208000C4F20101884213D1FFE7009820F4807068
:102090000090009820F40070009003984169009827
:1020A0000843009003988169009808430090FFE777
:1020B00000980499486002980499886103984068E0
:1020C0000499486301980499086205B070470000BC
:1020D00085B0049003910498006A01900499086AFD
:1020E00020F010000862049840680090049880690D
:1020F0000290029820F4E0400290029820F4407090
:10210000029003980168029840EA01200290019829
:1021100020F02000019003988168019840EA0110A6
:102120000190049842F60041C4F2010188420FD1A7
:10213000FFE7019820F0800001900398C1680198A2
:1021400040EA01100190019820F040000190FFE763
:10215000049842F60041C4F20101884215D1FFE71C
:10216000009820F480600090009820F400600090B7
:1021700003984169009840EA8100009003988169C2
:10218000009840EA81000090FFE7009804994860B9
:1021900002980499886103984068049988630198BB
:1021A0000499086205B0704785B0049003910498C3
:1021B000006A01900499086A20F48070086204980B
:1021C000406800900498C0690290029820F0700066
:1021D0000290029820F00300029003980168029890
:1021E00008430290019820F40070019003988168E0
:1021F000019840EA01200190049842F60041C4F29F
:10220000010188420FD1FFE7019820F4006001909E
:102210000398C168019840EA01200190019820F4D8
:1022200080600190FFE7049842F60041C4F201018A
:10223000884215D1FFE7009820F480500090009864
:1022400020F40050009003984169009840EA011082
:10225000009003988169009840EA01100090FFE720
:1022600000980499486002980499C86103984068EE
:102270000499C86301980499086205B0704700008A
:1022800085B0049003910498006A01900499086A4B
:1022900020F4805008620498406800900498C06957
:1022A0000290029820F4E0400290029820F44070DE
:1022B000029003980168029840EA01200290019878
:1022C00020F40050019003988168019840EA0130A1
:1022D0000190049842F60041C4F2010188420BD1FA
:1022E000FFE7009820F4804000900398416900982F
:1022F00040EA81100090FFE7009804994860029836
:102300000499C86103984068049908640198049985
:10231000086205B07047000085B0049003910292F6
:102320000498006A00900499086A20F0010008628D
:10233000049880690190019820F0F00001900299C2
:10234000019840EA01100190009820F00A000090E6
:1023500003990098084300900198049988610098B7
:102360000499086205B0704785B004900391029209
:102370000498006A00900499086A20F0100008622E
:10238000049880690190019820F4704001900299AE
:10239000019840EA01300190009820F0A0000090E0
:1023A0000399009840EA011000900198049988610F
:1023B00000980499086205B070470000FFE7FEE747
:1023C00081B08DF803009DF9030000280ED4FFE7CB
:1023D0009DF9031001F01F02012090404A094EF2BE
:1023E0000011CEF2000141F82200FFE701B0704772
:1023F0004EF60C50CEF200000068C0F30220704789
:1024000082B08DF8070000919DF9070000280AD4DA
:10241000FFE7009800019DF907104EF20042CEF24E
:10242000000288540BE0009800019DF8071001F0AD
:102430000F014EF61452CEF200028854FFE702B0AC
:102440007047000083B00290029800F007000090EF
:102450004EF60C51CEF200010868019001984FF63B
:10246000FF02104001900198009A40EA02200022E9
:10247000C0F2FA52104301900198086003B070470F
:1024800080B584B0002001900390FEF7CFF8FFF7ED
:10249000C3FCFFF77BFBFFF7A9FB40F27000C2F221
:1024A00000000290FEF774FF01990298FFF776FA98
:1024B000FFE7FEE700000000000000000102030447
:1024C0000607080902030405060708090A0B0C0D94
:1024D0000E0F101001020000F82400080000002078
:1024E0001000000028010008082500081000002046
:1024F000B0060000440100080024F40001000000C0
:082500001000000000000000C3
:04000005080000ED02
:00000001FF
