:020000040800F2
:10000000B8060020890100082D10000825100008FE
:1000100029100008910200084110000800000000AB
:100020000000000000000000000000003510000883
:100030009502000800000000311000083910000887
:10004000A3010008A3010008A3010008A301000800
:10005000A3010008A3010008A3010008A3010008F0
:10006000A3010008A3010008A3010008A3010008E0
:10007000A3010008A3010008A3010008A3010008D0
:10008000A3010008A3010008A3010008A3010008C0
:10009000A3010008A3010008A3010008A3010008B0
:1000A000A3010008A3010008A3010008A3010008A0
:1000B000A3010008A301000800000000A30100083C
:1000C000A30100080000000000000000A3010008D8
:1000D00000000000A3010008A301000800000000C8
:1000E000A3010008A3010008A301000800F002F822
:1000F00000F03AF80AA090E8000C82448344AAF188
:100100000107DA4501D100F02FF8AFF2090EBAE885
:100110000F0013F0010F18BFFB1A43F0010318473B
:100120007010000090100000103A24BF78C878C109
:10013000FAD8520724BF30C830C144BF04680C60ED
:10014000704700000023002400250026103A28BF35
:1001500078C1FBD8520728BF30C148BF0B60704739
:100160001FB51FBD10B510BD00F058F81146FFF7C0
:10017000F7FF00F067FF00F076F803B4FFF7F2FF37
:1001800003BC00F07DF8000009488047094800479B
:10019000FEE7FEE7FEE7FEE7FEE7FEE7FEE7FEE737
:1001A000FEE7FEE704480549054A064B7047000094
:1001B0003D100008ED000008B8000020B80600203F
:1001C000B8020020B80200204FF0000200B513462C
:1001D00094469646203922BFA0E80C50A0E80C5067
:1001E000B1F12001BFF4F7AF090728BFA0E80C5018
:1001F00048BF0CC05DF804EB890028BF40F8042B11
:1002000008BF704748BF20F8022B11F0804F18BF7D
:1002100000F8012B7047704770477047754600F033
:100220002BF8AE4605006946534620F00700854688
:1002300018B020B5FFF7B6FFBDE820404FF000062C
:100240004FF000074FF000084FF0000BAC46ACE851
:10025000C009ACE8C009ACE8C009ACE8C00921F0AD
:1002600007018D46704710B50446AFF30080204665
:10027000BDE81040FFF781BF004870471000002024
:1002800001491820ABBEFEE72600020070470000BF
:10029000FEE70000704700002DE9F04F82B00E68C5
:1002A000002E00F0F98040F20C4C41F200024FF6B3
:1002B000FF7EC4F2010CC4F20102032700240123D3
:1002C000C1F2100E4FF0000B4FF00009904208BF32
:1002D000022700974CE000BF40F60042C4F2010242
:1002E000009F904208BF012704F00C030F229A40A0
:1002F0002AEA020207FA03F34FEA9B051A4346F87B
:100300002520D1F804A040F20045C4F201055FEABF
:10031000CA322A6854BF22EA080242EA08022A6066
:100320006A685FEA8A3354BF22EA080242EA080296
:100330006A605FEACA23AA6854BF22EA080242EA56
:1003400008025FEA8A23AA60DCF800204FF001036C
:1003500054BF22EA080242EA0802CCF800200E68E4
:100360000BF1010B36FA0BF204F1040400F0948057
:1003700003FA0BF816EA080FF1D04E68764511DC47
:10038000122E55D8DFE806F0340A44485454545429
:100390005454545454545454544C5000D1F80C9068
:1003A00046E000BF4FF6FF72C1F2210296420FDC19
:1003B0000022C1F2110296421AD00022C1F21202AA
:1003C000964215D00022C1F22102964210D02FE0B1
:1003D0000022C1F2220296420AD00022C1F231026A
:1003E000964205D00022C1F23202964220D100BFCF
:1003F0008A684AB1012A14BFC0F81480C0F810807E
:100400004FF0080914E000BF4FF0040910E000BFEE
:10041000CA6802F108090BE04FF0000908E000BFCC
:10042000CA6802F1040903E0CA6802F10C0900BFBE
:1004300022460646BBF1080F24BF203A043637682F
:100440000F25954027EA050509FA02F22A43326092
:10045000CA79D2067FF583AF41F21803C4F20203D2
:100460001A6842F001021A601A6802F00102019251
:10047000019A40F20042C4F20102A2F57E762BF00E
:10048000030256F802A040F60002C4F201029042B4
:100490007FF422AF002727E702B0BDE8F08F00000D
:1004A000C26802EA0103914341EA034101617047D6
:1004B000002A08BF090401617047000040F2B4003F
:1004C000C2F200000068704740F2000040F2B40140
:1004D000C2F20000C2F2000100780A68104408600D
:1004E0007047000080B542F20000C4F202000168CB
:1004F00041F010010160032000F072F80F2000F0BD
:1005000005F800F027F8002080BD000070B540F22B
:100510000006C2F2000640F208013278C2F2000181
:100520004FF47A730968B3FBF2F20446B1FBF2F1BF
:10053000084600F047FB0F2C4FF0010508D838B9EA
:100540004FF0FF3021460022002500F01DF87460B6
:10055000284670BD82B041F21800C4F20200016862
:1005600041F001010160016801F00101019101996F
:10057000416841F080514160406800F08050009037
:10058000009802B07047000010B54EF60C5CCEF239
:10059000000CDCF80030C3F3022E8EF00704042CAC
:1005A00028BF0424BEF103034FF0FF3E0EFA04F40B
:1005B00038BF0023A14399400EFA03F39A43114335
:1005C00000F00F0200F160430901043A03F56443AF
:1005D0006244002848BF02F10C03197010BD0000EE
:1005E0004EF60C51CEF200010A684FF6FF031A4096
:1005F00060F30A2242F0806040F0FD7008607047AE
:100600002DE9F04381B0002800F0858042F2000817
:10061000C4F202080446D8F800000D4600F00700B6
:1006200088420CD2D8F8000020F007002843C8F810
:100630000000D8F8000000F00700A8426BD1206845
:1006400041F204098107C4F2020917D5410705D513
:10065000D9F8001041F4E061C9F80010010705D590
:10066000D9F8001041F46051C9F80010D9F8001011
:10067000A26821F0F0011143C9F80010C00741D170
:10068000D8F8000000F00700A8420CD9D8F8000004
:1006900020F007002843C8F80000D8F8000000F058
:1006A0000700A84237D12068410707D5D9F80010C4
:1006B000E26821F4E0611143C9F80010000708D591
:1006C000D9F80000216920F4605040EAC100C9F85F
:1006D0000000D9F8002002F00C00082841F20020A8
:1006E000C0F27A0050D141F28013C2F38341C0F6C8
:1006F0000003595CD2033BD440F60010C0F23D0029
:10070000484341E0606802280AD001282AD159F8FC
:10071000041C890308D4012001B0BDE8F08300BFA8
:1007200059F8041C8901F6D5D9F8001021F003010D
:100730000843C9F80000FFF7C1FE064641F28837BA
:10074000D9F80000616800F00C00B0EB810F97D081
:10075000FFF7B4FE801BB842F2D9032001B0BDE818
:10076000F08300BF59F8041C8907D4D5DCE700BF2B
:10077000D9F8002041F26613C2F34042C0F60003EC
:100780009A5C4843B0FBF2F0D9F8001041F26812CD
:10079000C1F30311C0F60002515C40F2080220FAD6
:1007A00001F140F20400C2F200000068C2F200024F
:1007B0001160FFF7ABFE002001B0BDE8F083000040
:1007C00040F2080041F20401C2F20000C4F202014A
:1007D0000068096841F27812C1F30221C0F60002F4
:1007E000515CC8407047000040F2080041F204012B
:1007F000C2F20000C4F202010068096841F27812F6
:10080000C1F3C221C0F60002515CC840704700002D
:100810002DE9F04182B0002868D00446007841F20A
:100820000006C007C4F2020625D0706800F00C0074
:1008300004281BD0706800F00C00082802D17068F2
:10084000C00313D46068002800F06881B0F5A02FC1
:1008500000F07C81B0F5803F00F07C81306820F4AE
:1008600080303060306820F4802076E1306880038A
:1008700001D56068D0B32078800718D5706810F073
:100880000C0F07D0706800F00C0008286ED170685B
:10089000C0036BD43068800702D52069012825D1B8
:1008A0003068616920F0F80040EAC10030602078CB
:1008B00000071FD42078400732D4E56995B17068ED
:1008C00000F00C00082840F08F80012D0ED07068D9
:1008D000216A00F480328A4208D1616A00F4701003
:1008E000884203D1002002B0BDE8F081012002B0AF
:1008F000BDE8F081A069002862D00020C4F2422047
:100900000121C0F88014FFF7D9FD0546706A800701
:1009100000F18C80FFF7D2FD401B0228F6D92AE1B6
:10092000F06910F0805808D1F06940F08050F06113
:10093000F06900F080500090009847F20007C4F280
:1009400000073868C00529D4386840F480703860E2
:10095000FFF7B4FD054600BF3868C0051ED4FFF799
:10096000ADFD401B6428F7D905E100BF20690028D0
:1009700040F20000C4F2422000F0828001210160B8
:10098000FFF79CFD054600BF306880073FF588AF44
:10099000FFF794FD401B0228F6D9ECE0E068002840
:1009A00000F08080052800F09780012800F09880F2
:1009B000306A20F001003062306A20F0040092E0DA
:1009C0000020C4F242200021C0F88014FFF776FD19
:1009D000054600BF706A80077FF56CAFFFF76EFDBC
:1009E000401B0228F6D9C6E00027C4F242270020A7
:1009F0003866FFF763FD022D05460BD13068800194
:100A000040F1BE80FFF75AFD401B02284FF0030063
:100A1000F4D968E7306880017FF564AFFFF74EFDD9
:100A2000401B02284FF00300F4D95CE740F20800B5
:100A3000C2F20000006844F6D351C1F26201A0FB8B
:100A40000101480A019000BF00BF0198411E002823
:100A500001913FF42FAF00BF0198411E0028019182
:100A60003FF428AF00BF0198411E002801913FF4D8
:100A700021AF00BF0198411E00280191E4D119E780
:100A800000210160FFF71AFD054600BF30688007AE
:100A90007FF50DAFFFF712FD401B02284FF003005A
:100AA000F4D920E7306A20F001003062306A20F08B
:100AB00004003062FFF702FD054641F2883700BFAF
:100AC000306A800720D5FFF7F9FC401BB8424FF091
:100AD0000300F5D907E700BF306A40F00400306238
:100AE000306A40F001003062FFF7E8FC054641F251
:100AF000883700BF306A800706D4FFF7DFFC401B51
:100B0000B842F7D937E000BFB8F1000F7FF4D5AE97
:100B1000F06920F08050F061CFE600BF306820F42B
:100B200080303060306820F480203060FFF7C6FCF1
:100B3000054600BF306880037FF59DAEFFF7BEFC21
:100B4000401B64284FF00300F4D9CCE6306840F431
:100B500080203060306840F480303060FFF7AEFCB9
:100B6000054600BF306880033FF585AEFFF7A6FC61
:100B7000401B6428F6D9032002B0BDE8F08100BF15
:100B8000206AB0F5803F05D17168A26821F4003178
:100B9000114371607168626A21F474111143084352
:100BA000706001203866FFF789FC044630688001D8
:100BB0003FF598AEFFF782FC001B02284FF00300C0
:100BC000F4D990E6411E0020B0EB116F1CBF01204C
:100BD00070474EF21002CEF2000251604EF62351E1
:100BE000CEF20001F0230B70072190601160704776
:100BF000002804BF0120704710B5044690F83D005E
:100C000028B9002084F83C00204600F061F8242038
:100C100084F83D002068D4E90212C36823F400532D
:100C2000C360036923F440531A430261D4E90423E7
:100C30001143C268194341F20C639A431143C160E6
:100C40004169A26921F44071114343F60002C4F2E4
:100C500001029042416103D0FFF7B2FD02E000BF04
:100C6000FFF7C2FD6268192148439100B0FBF1F023
:100C700048F21F51C5F2EB11A0FB01235A094FF6B0
:100C80009C73C0F6FF7302FB0300322303EB0010DA
:100C9000A0FB0101F02303EA5113206803EB0212C9
:100CA000C1F3431111448160016921F49041016154
:100CB000416921F02A014161C16841F40051C160DC
:100CC00000202021206484F83D1084F83E1010BDDF
:100CD00070B586B040F60004C4F20104006804F563
:100CE000405100268842049602D006B070BD00BF75
:100CF00041F21800C4F20200016802AD41F48041E3
:100D00000160016801F4804101910199016841F09D
:100D1000040101600068294600F004000190019878
:100D20004FF40070029002200390032005902046AB
:100D3000FFF7B2FA4FF48060CDE90206204629465B
:100D40000496FFF7A9FA06B070BD00002DE9F04344
:100D500081B0044690F83E0020280DD10E460029AF
:100D60004FF0010000F088801746002A00F08480D0
:100D700094F83C00012803D1022001B0BDE8F083C3
:100D8000012084F83C00002022211D46206484F8C4
:100D90003E102063FFF792FBA785E785A168074611
:100DA000B1F5805F01D1206910B1B046002601E0A5
:100DB0004FF00008002084F83C00E08D002857D058
:100DC00005F101090DE000BF40684FF000086FF326
:100DD0005F2026F8020BE08D0138E085E08D0028C9
:100DE00046D02068016889060ED4B9F1000F19D0E9
:100DF00055B300BFFFF762FBC11B2068A94223D88F
:100E000001688906F6D500BFB8F1000FDCD0A168F3
:100E1000B1F5805F14D009B9216989B1406800F04B
:100E20007F000EE001688906EED4016889065CBF88
:100E300001685FEA8161E7D401688906F2D5E3E7DA
:100E4000406808F8010BC6E7C16821F4D071C160A1
:100E5000416921F001014161202084F83D0084F8BE
:100E60003E00002084F83C00032001B0BDE8F08380
:100E7000202084F83E00002001B0BDE8F08300008F
:100E80002DE9F041044690F83D0020280ED10D4692
:100E900000294FF0010000F08E801646002A08BF9E
:100EA000BDE8F08194F83C00012803D10220BDE8A0
:100EB000F08100BF012084F83C0000202064212044
:100EC000984684F83D00FFF7F9FAA684E684A16805
:100ED0000646B1F5805F03D12069002800F0A080AC
:100EE0002F460025002084F83C00E08CE0B118F18A
:100EF00001001BD0B8F1000F60D120680BE000BFEB
:100F000035F8021B00276FF35F214160E18C013946
:100F1000E184E18C51B3016809066DD5002FEFD053
:100F200017F8011BF1E700BF20681FE0206802E00E
:100F30000168090609D40168090606D40168090692
:100F40005CBF01685FEA0161F2D51FB117F8011BB0
:100F500005E000BF35F8021B00276FF35F214160F9
:100F6000E18C0139E184E18C0029E4D10168490672
:100F70001DD4B8F1000F3FD018F101010ED1016866
:100F8000490614D4016849065CBF01685FEA416103
:100F90000DD401684906F2D509E000BFFFF78EFACB
:100FA000811B2068414527D800684006F6D52020DF
:100FB00084F83D000020BDE8F08100BF206800BF3C
:100FC0000168090606D4FFF779FA811B20684145BC
:100FD000F6D911E017B117F8011B04E035F8021B30
:100FE00000276FF35F214160E18C0139E184E18CDE
:100FF0000029E5D1BAE700BFC16821F4D071C16012
:10100000416921F001014161202084F83D0084F80C
:101010003E00002084F83C000320BDE8F08100BFC2
:1010200000275FE7FEE70000FEE70000FEE70000A4
:101030007047000070470000FFF746BA7047000095
:10104000FEE7000090B0FFF74DFA06AC201D24210A
:10105000FFF7BAF80220069001200A9010200B90AA
:10106000002520460D95FFF7D3FB28B1EFF3108044
:1010700072B600BFFEE700BF0F20CDE9010501A851
:101080000021CDE903550595FFF7BAFA20B1EFF33A
:10109000108072B6FEE700BF41F21800C4F20200F1
:1010A000016840F6000441F0040101600068C4F2E8
:1010B000010400F004000690069820460621002254
:1010C00006250026FFF7F4F90120CDE907060220E6
:1010D000099006A920460695FFF7DEF840F2700059
:1010E00004F54051C2F200000C234FF4165280E880
:1010F0004600C0E90366C0E90536C661FFF778FD22
:1011000020B1EFF3108072B6FEE700BF40F2700529
:10111000C2F2000506AE4FF0520801AF4FF047098A
:101120000DE000BF20460421FFF7BAF98DF80480D6
:101130002846394601224FF0FF33FFF7A1FE28462B
:10114000314601224FF0FF33FFF700FE9DF81800F3
:101150007228E7D06728EBD120460221FFF7A0F9DB
:101160008DF80490E4E70102000000000000000098
:10117000010203040607080900000000010203043D
:1011800002030405060708090A0B0C0D0E0F1010C8
:10119000B011000800000020100000002801000825
:1011A000C011000810000020A8060000440100083B
:1011B00001000000100000000024F4000000000006
:04000005080000ED02
:00000001FF
